{
  "contractName": "ProductScan",
  "abi": [
    {
      "inputs": [],
      "stateMutability": "nonpayable",
      "type": "constructor"
    },
    {
      "anonymous": false,
      "inputs": [
        {
          "indexed": true,
          "internalType": "address",
          "name": "previousOwner",
          "type": "address"
        },
        {
          "indexed": true,
          "internalType": "address",
          "name": "newOwner",
          "type": "address"
        }
      ],
      "name": "OwnershipTransferred",
      "type": "event"
    },
    {
      "anonymous": false,
      "inputs": [
        {
          "indexed": false,
          "internalType": "address",
          "name": "setter",
          "type": "address"
        }
      ],
      "name": "constructorSet",
      "type": "event"
    },
    {
      "anonymous": false,
      "inputs": [
        {
          "indexed": false,
          "internalType": "uint256",
          "name": "productId",
          "type": "uint256"
        },
        {
          "indexed": false,
          "internalType": "address",
          "name": "owner",
          "type": "address"
        }
      ],
      "name": "newProductAdded",
      "type": "event"
    },
    {
      "anonymous": false,
      "inputs": [
        {
          "indexed": false,
          "internalType": "string",
          "name": "name",
          "type": "string"
        },
        {
          "indexed": false,
          "internalType": "address",
          "name": "seller",
          "type": "address"
        }
      ],
      "name": "newSellerRegistered",
      "type": "event"
    },
    {
      "anonymous": false,
      "inputs": [
        {
          "indexed": false,
          "internalType": "address",
          "name": "buyer",
          "type": "address"
        }
      ],
      "name": "productPurchased",
      "type": "event"
    },
    {
      "anonymous": false,
      "inputs": [
        {
          "indexed": false,
          "internalType": "uint256",
          "name": "productId",
          "type": "uint256"
        },
        {
          "indexed": false,
          "internalType": "address",
          "name": "buyer",
          "type": "address"
        }
      ],
      "name": "productPurchasedByConsumer",
      "type": "event"
    },
    {
      "anonymous": false,
      "inputs": [
        {
          "indexed": false,
          "internalType": "uint256",
          "name": "productId",
          "type": "uint256"
        },
        {
          "indexed": false,
          "internalType": "address",
          "name": "seller",
          "type": "address"
        },
        {
          "indexed": false,
          "internalType": "address",
          "name": "buyer",
          "type": "address"
        }
      ],
      "name": "productSoldSuccessfully",
      "type": "event"
    },
    {
      "inputs": [],
      "name": "owner",
      "outputs": [
        {
          "internalType": "address",
          "name": "",
          "type": "address"
        }
      ],
      "stateMutability": "view",
      "type": "function"
    },
    {
      "inputs": [
        {
          "internalType": "address",
          "name": "newOwner",
          "type": "address"
        }
      ],
      "name": "transferOwnership",
      "outputs": [],
      "stateMutability": "nonpayable",
      "type": "function"
    },
    {
      "inputs": [],
      "name": "getAllOwnedProducts",
      "outputs": [
        {
          "components": [
            {
              "internalType": "uint256",
              "name": "productId",
              "type": "uint256"
            },
            {
              "internalType": "uint256",
              "name": "price",
              "type": "uint256"
            },
            {
              "internalType": "string",
              "name": "name",
              "type": "string"
            },
            {
              "internalType": "bool",
              "name": "isSold",
              "type": "bool"
            },
            {
              "internalType": "string",
              "name": "details",
              "type": "string"
            },
            {
              "internalType": "uint256",
              "name": "productionDate",
              "type": "uint256"
            }
          ],
          "internalType": "struct ProductScan.Product[]",
          "name": "",
          "type": "tuple[]"
        }
      ],
      "stateMutability": "view",
      "type": "function"
    },
    {
      "inputs": [
        {
          "internalType": "uint256",
          "name": "_productId",
          "type": "uint256"
        },
        {
          "internalType": "bytes32",
          "name": "_secretId",
          "type": "bytes32"
        },
        {
          "internalType": "uint256",
          "name": "_price",
          "type": "uint256"
        },
        {
          "internalType": "string",
          "name": "_name",
          "type": "string"
        },
        {
          "internalType": "string",
          "name": "_details",
          "type": "string"
        },
        {
          "internalType": "uint256",
          "name": "_productionDate",
          "type": "uint256"
        }
      ],
      "name": "addProduct",
      "outputs": [
        {
          "internalType": "bool",
          "name": "",
          "type": "bool"
        }
      ],
      "stateMutability": "nonpayable",
      "type": "function"
    },
    {
      "inputs": [
        {
          "internalType": "bytes32",
          "name": "_secretId",
          "type": "bytes32"
        }
      ],
      "name": "buyProduct",
      "outputs": [
        {
          "internalType": "bool",
          "name": "",
          "type": "bool"
        }
      ],
      "stateMutability": "nonpayable",
      "type": "function"
    },
    {
      "inputs": [
        {
          "internalType": "uint256",
          "name": "_productId",
          "type": "uint256"
        },
        {
          "internalType": "address",
          "name": "_buyerAddress",
          "type": "address"
        }
      ],
      "name": "sellProduct",
      "outputs": [
        {
          "internalType": "bool",
          "name": "",
          "type": "bool"
        }
      ],
      "stateMutability": "nonpayable",
      "type": "function"
    },
    {
      "inputs": [
        {
          "internalType": "uint256",
          "name": "_productId",
          "type": "uint256"
        }
      ],
      "name": "productDetails",
      "outputs": [
        {
          "internalType": "string",
          "name": "name",
          "type": "string"
        },
        {
          "internalType": "string",
          "name": "details",
          "type": "string"
        },
        {
          "internalType": "uint256",
          "name": "price",
          "type": "uint256"
        },
        {
          "internalType": "bool",
          "name": "isSold",
          "type": "bool"
        },
        {
          "internalType": "string",
          "name": "isOriginal",
          "type": "string"
        }
      ],
      "stateMutability": "view",
      "type": "function"
    },
    {
      "inputs": [],
      "name": "productLength",
      "outputs": [
        {
          "internalType": "uint256",
          "name": "_productArrayLength",
          "type": "uint256"
        }
      ],
      "stateMutability": "view",
      "type": "function"
    }
  ],
  "bytecode": "0x60806040523480156200001157600080fd5b506000620000246200024760201b60201c565b9050806000806101000a81548173ffffffffffffffffffffffffffffffffffffffff021916908373ffffffffffffffffffffffffffffffffffffffff1602179055508073ffffffffffffffffffffffffffffffffffffffff16600073ffffffffffffffffffffffffffffffffffffffff167f8be0079c531659141344cd1fd0a4f28419497f9722a3daafe3b4186f6b6457e060405160405180910390a35060016040518060c0016040528060008152602001600081526020016040518060400160405280600a81526020017f44756d6d7920446174610000000000000000000000000000000000000000000081525081526020016000151581526020016040518060400160405280601981526020017f44756d6d79204461746120466f7220696e697469616c697a65000000000000008152508152602001600a815250908060018154018082558091505060019003906000526020600020906006020160009091909190915060008201518160000155602082015181600101556040820151816002019080519060200190620001bc9291906200024f565b5060608201518160030160006101000a81548160ff0219169083151502179055506080820151816004019080519060200190620001fb9291906200024f565b5060a0820151816005015550507f554313c8aee45460ac12e0a92818ed96443f15b4b0b008141f8db8c3f5fa6eef3360405162000239919062000344565b60405180910390a1620003c5565b600033905090565b8280546200025d9062000390565b90600052602060002090601f016020900481019282620002815760008555620002cd565b82601f106200029c57805160ff1916838001178555620002cd565b82800160010185558215620002cd579182015b82811115620002cc578251825591602001919060010190620002af565b5b509050620002dc9190620002e0565b5090565b5b80821115620002fb576000816000905550600101620002e1565b5090565b600073ffffffffffffffffffffffffffffffffffffffff82169050919050565b60006200032c82620002ff565b9050919050565b6200033e816200031f565b82525050565b60006020820190506200035b600083018462000333565b92915050565b7f4e487b7100000000000000000000000000000000000000000000000000000000600052602260045260246000fd5b60006002820490506001821680620003a957607f821691505b602082108103620003bf57620003be62000361565b5b50919050565b6124d580620003d56000396000f3fe608060405234801561001057600080fd5b50600436106100885760003560e01c80638da5cb5b1161005b5780638da5cb5b1461013f578063943a4dfc1461015d578063bbcd300b1461018d578063f2fde38b146101ab57610088565b80630b5691401461008d57806348f7eb30146100bd5780635476a3a3146100f157806388cfab9214610121575b600080fd5b6100a760048036038101906100a291906116fc565b6101c7565b6040516100b49190611757565b60405180910390f35b6100d760048036038101906100d29190611772565b61063b565b6040516100e8959493929190611847565b60405180910390f35b61010b60048036038101906101069190611a1a565b610971565b6040516101189190611757565b60405180910390f35b610129610c31565b6040516101369190611c99565b60405180910390f35b610147610f82565b6040516101549190611cca565b60405180910390f35b61017760048036038101906101729190611ce5565b610fab565b6040516101849190611757565b60405180910390f35b61019561130e565b6040516101a29190611d12565b60405180910390f35b6101c560048036038101906101c09190611d2d565b6113b0565b005b60008260006006600083815260200190815260200160002060009054906101000a900473ffffffffffffffffffffffffffffffffffffffff1690508073ffffffffffffffffffffffffffffffffffffffff163373ffffffffffffffffffffffffffffffffffffffff1614610270576040517f08c379a000000000000000000000000000000000000000000000000000000000815260040161026790611da6565b60405180910390fd5b8460006002600083815260200190815260200160002054905060006001828154811061029f5761029e611dc6565b5b906000526020600020906006020160030160009054906101000a900460ff1690506000151581151514610307576040517f08c379a00000000000000000000000000000000000000000000000000000000081526004016102fe90611e41565b60405180910390fd5b6000600660008a815260200190815260200160002060009054906101000a900473ffffffffffffffffffffffffffffffffffffffff169050600073ffffffffffffffffffffffffffffffffffffffff168173ffffffffffffffffffffffffffffffffffffffff16036103ae576040517f08c379a00000000000000000000000000000000000000000000000000000000081526004016103a590611ed3565b60405180910390fd5b8773ffffffffffffffffffffffffffffffffffffffff163373ffffffffffffffffffffffffffffffffffffffff160361041c576040517f08c379a000000000000000000000000000000000000000000000000000000000815260040161041390611f3f565b60405180910390fd5b6000600460003373ffffffffffffffffffffffffffffffffffffffff1673ffffffffffffffffffffffffffffffffffffffff168152602001908152602001600020541161049e576040517f08c379a000000000000000000000000000000000000000000000000000000000815260040161049590611fab565b60405180910390fd5b6000600260008b815260200190815260200160002054905060018082815481106104cb576104ca611dc6565b5b906000526020600020906006020160030160006101000a81548160ff02191690831515021790555088600660008c815260200190815260200160002060006101000a81548173ffffffffffffffffffffffffffffffffffffffff021916908373ffffffffffffffffffffffffffffffffffffffff160217905550600460003373ffffffffffffffffffffffffffffffffffffffff1673ffffffffffffffffffffffffffffffffffffffff168152602001908152602001600020600081548092919061059590611ffa565b9190505550600460008a73ffffffffffffffffffffffffffffffffffffffff1673ffffffffffffffffffffffffffffffffffffffff16815260200190815260200160002060008154809291906105ea90612023565b91905055507ff97c1f1de80ef41c13355fa2353dfcae96536bdf6fd7db677dc26d63bf92c6d88a338b6040516106229392919061206b565b60405180910390a1600197505050505050505092915050565b606080600080606060006002600088815260200190815260200160002054905060006001828154811061067157610670611dc6565b5b90600052602060002090600602016040518060c001604052908160008201548152602001600182015481526020016002820180546106ae906120d1565b80601f01602080910402602001604051908101604052809291908181526020018280546106da906120d1565b80156107275780601f106106fc57610100808354040283529160200191610727565b820191906000526020600020905b81548152906001019060200180831161070a57829003601f168201915b505050505081526020016003820160009054906101000a900460ff1615151515815260200160048201805461075b906120d1565b80601f0160208091040260200160405190810160405280929190818152602001828054610787906120d1565b80156107d45780601f106107a9576101008083540402835291602001916107d4565b820191906000526020600020905b8154815290600101906020018083116107b757829003601f168201915b5050505050815260200160058201548152505090506000600660008a815260200190815260200160002060009054906101000a900473ffffffffffffffffffffffffffffffffffffffff169050600073ffffffffffffffffffffffffffffffffffffffff168173ffffffffffffffffffffffffffffffffffffffff16146108b15781604001518260800151836020015184606001516040518060400160405280600881526020017f4f726967696e616c00000000000000000000000000000000000000000000000081525097509750975097509750505050610968565b6000806040518060400160405280600281526020017f4e4100000000000000000000000000000000000000000000000000000000000081525091906040518060400160405280600281526020017f4e4100000000000000000000000000000000000000000000000000000000000081525091906040518060400160405280600481526020017f46616b6500000000000000000000000000000000000000000000000000000000815250975097509750975097505050505b91939590929450565b6000806002600089815260200190815260200160002054146109c8576040517f08c379a00000000000000000000000000000000000000000000000000000000081526004016109bf9061214e565b60405180910390fd5b6000600360008881526020019081526020016000205414610a1e576040517f08c379a0000000000000000000000000000000000000000000000000000000008152600401610a15906121ba565b60405180910390fd5b336006600089815260200190815260200160002060006101000a81548173ffffffffffffffffffffffffffffffffffffffff021916908373ffffffffffffffffffffffffffffffffffffffff160217905550600460003373ffffffffffffffffffffffffffffffffffffffff1673ffffffffffffffffffffffffffffffffffffffff1681526020019081526020016000206000815480929190610ac090612023565b919050555060016040518060c0016040528089815260200187815260200186815260200160001515815260200185815260200184815250908060018154018082558091505060019003906000526020600020906006020160009091909190915060008201518160000155602082015181600101556040820151816002019080519060200190610b50929190611579565b5060608201518160030160006101000a81548160ff0219169083151502179055506080820151816004019080519060200190610b8d929190611579565b5060a08201518160050155505060018080549050610bab91906121da565b600260008981526020019081526020016000208190555060018080549050610bd391906121da565b60036000888152602001908152602001600020819055507fbd8ac5c2f6ef8dd241a94a60d0a2a959593fc3457eda34e09a7d4f605366365c8733604051610c1b92919061220e565b60405180910390a1600190509695505050505050565b60606000600460003373ffffffffffffffffffffffffffffffffffffffff1673ffffffffffffffffffffffffffffffffffffffff16815260200190815260200160002054905060008111610cba576040517f08c379a0000000000000000000000000000000000000000000000000000000008152600401610cb190612283565b60405180910390fd5b60008167ffffffffffffffff811115610cd657610cd56118ef565b5b604051908082528060200260200182016040528015610d0f57816020015b610cfc6115ff565b815260200190600190039081610cf45790505b5090506000805b600180549050811015610f78573373ffffffffffffffffffffffffffffffffffffffff166006600060018481548110610d5257610d51611dc6565b5b906000526020600020906006020160000154815260200190815260200160002060009054906101000a900473ffffffffffffffffffffffffffffffffffffffff1673ffffffffffffffffffffffffffffffffffffffff1603610f655760018181548110610dc257610dc1611dc6565b5b90600052602060002090600602016040518060c00160405290816000820154815260200160018201548152602001600282018054610dff906120d1565b80601f0160208091040260200160405190810160405280929190818152602001828054610e2b906120d1565b8015610e785780601f10610e4d57610100808354040283529160200191610e78565b820191906000526020600020905b815481529060010190602001808311610e5b57829003601f168201915b505050505081526020016003820160009054906101000a900460ff16151515158152602001600482018054610eac906120d1565b80601f0160208091040260200160405190810160405280929190818152602001828054610ed8906120d1565b8015610f255780601f10610efa57610100808354040283529160200191610f25565b820191906000526020600020905b815481529060010190602001808311610f0857829003601f168201915b50505050508152602001600582015481525050838381518110610f4b57610f4a611dc6565b5b60200260200101819052508180610f6190612023565b9250505b8080610f7090612023565b915050610d16565b5081935050505090565b60008060009054906101000a900473ffffffffffffffffffffffffffffffffffffffff16905090565b60008060036000848152602001908152602001600020549050600060018281548110610fda57610fd9611dc6565b5b906000526020600020906006020160000154905060006006600083815260200190815260200160002060009054906101000a900473ffffffffffffffffffffffffffffffffffffffff169050600073ffffffffffffffffffffffffffffffffffffffff168173ffffffffffffffffffffffffffffffffffffffff1603611095576040517f08c379a000000000000000000000000000000000000000000000000000000000815260040161108c90611ed3565b60405180910390fd5b6000600460008373ffffffffffffffffffffffffffffffffffffffff1673ffffffffffffffffffffffffffffffffffffffff1681526020019081526020016000205411611117576040517f08c379a000000000000000000000000000000000000000000000000000000000815260040161110e906122ef565b60405180910390fd5b600015156001848154811061112f5761112e611dc6565b5b906000526020600020906006020160030160009054906101000a900460ff16151514611190576040517f08c379a000000000000000000000000000000000000000000000000000000000815260040161118790612381565b60405180910390fd5b60018084815481106111a5576111a4611dc6565b5b906000526020600020906006020160030160006101000a81548160ff021916908315150217905550336006600084815260200190815260200160002060006101000a81548173ffffffffffffffffffffffffffffffffffffffff021916908373ffffffffffffffffffffffffffffffffffffffff160217905550600460008273ffffffffffffffffffffffffffffffffffffffff1673ffffffffffffffffffffffffffffffffffffffff168152602001908152602001600020600081548092919061126f90611ffa565b9190505550600460003373ffffffffffffffffffffffffffffffffffffffff1673ffffffffffffffffffffffffffffffffffffffff16815260200190815260200160002060008154809291906112c490612023565b91905055507f53b435a434268e3562a0a9c12fa3245e841643c0a168cc7fff1fac5de6b30e9082336040516112fa92919061220e565b60405180910390a160019350505050919050565b6000611318611571565b73ffffffffffffffffffffffffffffffffffffffff1660008054906101000a900473ffffffffffffffffffffffffffffffffffffffff1673ffffffffffffffffffffffffffffffffffffffff16146113a5576040517f08c379a000000000000000000000000000000000000000000000000000000000815260040161139c906123ed565b60405180910390fd5b600180549050905090565b6113b8611571565b73ffffffffffffffffffffffffffffffffffffffff1660008054906101000a900473ffffffffffffffffffffffffffffffffffffffff1673ffffffffffffffffffffffffffffffffffffffff1614611445576040517f08c379a000000000000000000000000000000000000000000000000000000000815260040161143c906123ed565b60405180910390fd5b600073ffffffffffffffffffffffffffffffffffffffff168173ffffffffffffffffffffffffffffffffffffffff16036114b4576040517f08c379a00000000000000000000000000000000000000000000000000000000081526004016114ab9061247f565b60405180910390fd5b8073ffffffffffffffffffffffffffffffffffffffff1660008054906101000a900473ffffffffffffffffffffffffffffffffffffffff1673ffffffffffffffffffffffffffffffffffffffff167f8be0079c531659141344cd1fd0a4f28419497f9722a3daafe3b4186f6b6457e060405160405180910390a3806000806101000a81548173ffffffffffffffffffffffffffffffffffffffff021916908373ffffffffffffffffffffffffffffffffffffffff16021790555050565b600033905090565b828054611585906120d1565b90600052602060002090601f0160209004810192826115a757600085556115ee565b82601f106115c057805160ff19168380011785556115ee565b828001600101855582156115ee579182015b828111156115ed5782518255916020019190600101906115d2565b5b5090506115fb9190611637565b5090565b6040518060c0016040528060008152602001600081526020016060815260200160001515815260200160608152602001600081525090565b5b80821115611650576000816000905550600101611638565b5090565b6000604051905090565b600080fd5b600080fd5b6000819050919050565b61167b81611668565b811461168657600080fd5b50565b60008135905061169881611672565b92915050565b600073ffffffffffffffffffffffffffffffffffffffff82169050919050565b60006116c98261169e565b9050919050565b6116d9816116be565b81146116e457600080fd5b50565b6000813590506116f6816116d0565b92915050565b600080604083850312156117135761171261165e565b5b600061172185828601611689565b9250506020611732858286016116e7565b9150509250929050565b60008115159050919050565b6117518161173c565b82525050565b600060208201905061176c6000830184611748565b92915050565b6000602082840312156117885761178761165e565b5b600061179684828501611689565b91505092915050565b600081519050919050565b600082825260208201905092915050565b60005b838110156117d95780820151818401526020810190506117be565b838111156117e8576000848401525b50505050565b6000601f19601f8301169050919050565b600061180a8261179f565b61181481856117aa565b93506118248185602086016117bb565b61182d816117ee565b840191505092915050565b61184181611668565b82525050565b600060a082019050818103600083015261186181886117ff565b9050818103602083015261187581876117ff565b90506118846040830186611838565b6118916060830185611748565b81810360808301526118a381846117ff565b90509695505050505050565b6000819050919050565b6118c2816118af565b81146118cd57600080fd5b50565b6000813590506118df816118b9565b92915050565b600080fd5b600080fd5b7f4e487b7100000000000000000000000000000000000000000000000000000000600052604160045260246000fd5b611927826117ee565b810181811067ffffffffffffffff82111715611946576119456118ef565b5b80604052505050565b6000611959611654565b9050611965828261191e565b919050565b600067ffffffffffffffff821115611985576119846118ef565b5b61198e826117ee565b9050602081019050919050565b82818337600083830152505050565b60006119bd6119b88461196a565b61194f565b9050828152602081018484840111156119d9576119d86118ea565b5b6119e484828561199b565b509392505050565b600082601f830112611a0157611a006118e5565b5b8135611a118482602086016119aa565b91505092915050565b60008060008060008060c08789031215611a3757611a3661165e565b5b6000611a4589828a01611689565b9650506020611a5689828a016118d0565b9550506040611a6789828a01611689565b945050606087013567ffffffffffffffff811115611a8857611a87611663565b5b611a9489828a016119ec565b935050608087013567ffffffffffffffff811115611ab557611ab4611663565b5b611ac189828a016119ec565b92505060a0611ad289828a01611689565b9150509295509295509295565b600081519050919050565b600082825260208201905092915050565b6000819050602082019050919050565b611b1481611668565b82525050565b600082825260208201905092915050565b6000611b368261179f565b611b408185611b1a565b9350611b508185602086016117bb565b611b59816117ee565b840191505092915050565b611b6d8161173c565b82525050565b600060c083016000830151611b8b6000860182611b0b565b506020830151611b9e6020860182611b0b565b5060408301518482036040860152611bb68282611b2b565b9150506060830151611bcb6060860182611b64565b5060808301518482036080860152611be38282611b2b565b91505060a0830151611bf860a0860182611b0b565b508091505092915050565b6000611c0f8383611b73565b905092915050565b6000602082019050919050565b6000611c2f82611adf565b611c398185611aea565b935083602082028501611c4b85611afb565b8060005b85811015611c875784840389528151611c688582611c03565b9450611c7383611c17565b925060208a01995050600181019050611c4f565b50829750879550505050505092915050565b60006020820190508181036000830152611cb38184611c24565b905092915050565b611cc4816116be565b82525050565b6000602082019050611cdf6000830184611cbb565b92915050565b600060208284031215611cfb57611cfa61165e565b5b6000611d09848285016118d0565b91505092915050565b6000602082019050611d276000830184611838565b92915050565b600060208284031215611d4357611d4261165e565b5b6000611d51848285016116e7565b91505092915050565b7f596f7520646f206e6f74206f776e20746869732070726f647563740000000000600082015250565b6000611d90601b836117aa565b9150611d9b82611d5a565b602082019050919050565b60006020820190508181036000830152611dbf81611d83565b9050919050565b7f4e487b7100000000000000000000000000000000000000000000000000000000600052603260045260246000fd5b7f70726f6475637420697320616c726561647920736f6c64000000000000000000600082015250565b6000611e2b6017836117aa565b9150611e3682611df5565b602082019050919050565b60006020820190508181036000830152611e5a81611e1e565b9050919050565b7f5468657265206973206e6f2070726f647563742077697468207468652067697660008201527f656e207365637265744964000000000000000000000000000000000000000000602082015250565b6000611ebd602b836117aa565b9150611ec882611e61565b604082019050919050565b60006020820190508181036000830152611eec81611eb0565b9050919050565b7f596f7520616c7265616479206f776e20746869732070726f6475637400000000600082015250565b6000611f29601c836117aa565b9150611f3482611ef3565b602082019050919050565b60006020820190508181036000830152611f5881611f1c565b9050919050565b7f596f75206f776e20302070726f64756374000000000000000000000000000000600082015250565b6000611f956011836117aa565b9150611fa082611f5f565b602082019050919050565b60006020820190508181036000830152611fc481611f88565b9050919050565b7f4e487b7100000000000000000000000000000000000000000000000000000000600052601160045260246000fd5b600061200582611668565b91506000820361201857612017611fcb565b5b600182039050919050565b600061202e82611668565b91507fffffffffffffffffffffffffffffffffffffffffffffffffffffffffffffffff82036120605761205f611fcb565b5b600182019050919050565b60006060820190506120806000830186611838565b61208d6020830185611cbb565b61209a6040830184611cbb565b949350505050565b7f4e487b7100000000000000000000000000000000000000000000000000000000600052602260045260246000fd5b600060028204905060018216806120e957607f821691505b6020821081036120fc576120fb6120a2565b5b50919050565b7f50726f647563742069642069732075736564206265666f726500000000000000600082015250565b60006121386019836117aa565b915061214382612102565b602082019050919050565b600060208201905081810360008301526121678161212b565b9050919050565b7f5365637265742069642069732075736564206265666f72650000000000000000600082015250565b60006121a46018836117aa565b91506121af8261216e565b602082019050919050565b600060208201905081810360008301526121d381612197565b9050919050565b60006121e582611668565b91506121f083611668565b92508282101561220357612202611fcb565b5b828203905092915050565b60006040820190506122236000830185611838565b6122306020830184611cbb565b9392505050565b7f596f752068617665206e6f2070726f6475637473000000000000000000000000600082015250565b600061226d6014836117aa565b915061227882612237565b602082019050919050565b6000602082019050818103600083015261229c81612260565b9050919050565b7f53656c6c65722070726f6475637420636f756e74206973203000000000000000600082015250565b60006122d96019836117aa565b91506122e4826122a3565b602082019050919050565b60006020820190508181036000830152612308816122cc565b9050919050565b7f50726f6475637420697320616c726561647920736f6c642c205365637265742060008201527f6964206973207363616e6e6564206265666f7265000000000000000000000000602082015250565b600061236b6034836117aa565b91506123768261230f565b604082019050919050565b6000602082019050818103600083015261239a8161235e565b9050919050565b7f4f776e61626c653a2063616c6c6572206973206e6f7420746865206f776e6572600082015250565b60006123d76020836117aa565b91506123e2826123a1565b602082019050919050565b60006020820190508181036000830152612406816123ca565b9050919050565b7f4f776e61626c653a206e6577206f776e657220697320746865207a65726f206160008201527f6464726573730000000000000000000000000000000000000000000000000000602082015250565b60006124696026836117aa565b91506124748261240d565b604082019050919050565b600060208201905081810360008301526124988161245c565b905091905056fea264697066735822122090cc32b249f404f613b912fab65dfc331e4a0b343fbd89f9aaa9635ae8c59ae664736f6c634300080d0033",
  "immutableReferences": {},
  "source": "// SPDX-License-Identifier: MIT\r\npragma solidity ^0.8.13;\r\nimport \"./Ownership.sol\";\r\n\r\ncontract ProductScan is Ownership {\r\n\r\n    //rnler\r\n    Product[] private products;\r\n    //Satclar\r\n    //SellerInfo[] private sellers;\r\n\r\n    //rn\r\n    struct Product {\r\n        uint256 productId;\r\n        uint256 price;\r\n        string name;\r\n        bool isSold;\r\n        string details;\r\n        //Tarihler 1970'ten bu yana gelen saniyeler ile hesaplanr!!!\r\n        uint productionDate;\r\n    }\r\n\r\n\r\n    //Satc\r\n    // struct SellerInfo {\r\n    //     uint256 reportCount;\r\n    //     string name;\r\n    //     string details;\r\n    // }\r\n\r\n\r\n    constructor(){\r\n        products.push(Product(0, 0, \"Dummy Data\", false, \"Dummy Data For initialize\", 10));\r\n \r\n        emit constructorSet(msg.sender);\r\n    }\r\n\r\n\r\n    //Mapping ksm\r\n    //mapping(address => uint256) sellerAddressToSellerIndex;\r\n\r\n    mapping(uint256 => uint256) private productIdToProductIndex;\r\n\r\n    mapping(bytes32 => uint256) private secretIdToProductIndex;\r\n\r\n    mapping(address => uint256) private ownerProductCount;\r\n\r\n    mapping(uint256 => bool) productIdUsedForReport;\r\n\r\n    mapping(uint256 => address) private productToOwner;\r\n    \r\n\r\n\r\n    //Eventler\r\n    event constructorSet(address setter);\r\n\r\n    event newProductAdded(uint256 productId, address owner);\r\n\r\n    event productPurchased(address buyer);\r\n\r\n    event productSoldSuccessfully(\r\n        uint256 productId,\r\n        address seller,\r\n        address buyer\r\n    );\r\n    event productPurchasedByConsumer(uint256 productId, address buyer);\r\n\r\n    event newSellerRegistered(string name, address seller);\r\n\r\n\r\n\r\n    modifier sellerCheck(uint256 _productId) {\r\n        // check if the seller owns the product or not...\r\n        address productOwner = productToOwner[_productId];\r\n        require(msg.sender == productOwner, \"You do not own this product\");\r\n        _;\r\n    }\r\n\r\n    modifier soldCheck(uint256 _productId) {\r\n        // finding product index\r\n        uint256 productIndex = productIdToProductIndex[_productId];\r\n\r\n        // finding product from index\r\n        bool isSold = products[productIndex].isSold;\r\n\r\n        require(isSold == false, \"product is already sold\");\r\n        _;\r\n    }\r\n\r\n    // modifier onlySideContract() {\r\n    //     require(msg.sender == sideContract, \"You are not side contract\");\r\n    //     require(sideContract != address(0), \"side contract is not set yet\");\r\n    //     _;\r\n    // }\r\n\r\n    // function getAllProducts() public view returns (Product[] memory){\r\n    //     require(products.length > 0, \"There are no products\");\r\n\r\n    //     return products;\r\n    // }\r\n\r\n\r\n    function getAllOwnedProducts() public view returns (Product[] memory) {\r\n        uint256 productCount = ownerProductCount[msg.sender];\r\n        //rn var m?\r\n        require(productCount > 0, \"You have no products\");\r\n\r\n        // push method not available for memory array...\r\n        Product[] memory ownedProducts = new Product[](productCount);\r\n        uint256 j = 0;\r\n\r\n        for (uint256 i = 0; i < products.length; i++) {\r\n            if (productToOwner[products[i].productId] == msg.sender) {\r\n                ownedProducts[j] = products[i];\r\n                j++;\r\n            }\r\n        }\r\n        return ownedProducts;\r\n    }\r\n\r\n\r\n    function addProduct(\r\n        uint256 _productId,\r\n        bytes32 _secretId,\r\n        uint256 _price,\r\n        string memory _name,\r\n        string memory _details,\r\n        uint _productionDate\r\n    ) external returns (bool) {\r\n        //Product ID daha nce kullanld m?\r\n        require(\r\n            productIdToProductIndex[_productId] == 0,\r\n            \"Product id is used before\"\r\n        );\r\n        require(\r\n            secretIdToProductIndex[_secretId] == 0,\r\n            \"Secret id is used before\"\r\n        );\r\n        //Fonksiyonu aran kii sahip olur\r\n        productToOwner[_productId] = msg.sender;\r\n        ownerProductCount[msg.sender]++;\r\n\r\n        //Diziye rn ekleme:\r\n        // uint256 productId;\r\n        // uint256 price;\r\n        // string name;\r\n        // bool isSold;\r\n        // string details;\r\n        // //Tarihler 1970'ten bu yana gelen saniyeler ile hesaplanr!!!\r\n        // uint productionDate;\r\n        products.push(Product(_productId, _price, _name, false, _details, _productionDate));\r\n\r\n        //setting index in mappings\r\n        productIdToProductIndex[_productId] = products.length - 1;\r\n        secretIdToProductIndex[_secretId] = products.length - 1;\r\n\r\n        emit newProductAdded(_productId, msg.sender);\r\n\r\n        return true;\r\n    }\r\n\r\n\r\n    function buyProduct(bytes32 _secretId)\r\n        external\r\n        returns (bool)\r\n    {\r\n        //onlySideContract\r\n        // finding product index using secret id from the in the common storage...\r\n        uint256 productIndex = secretIdToProductIndex[_secretId];\r\n        // productId from product\r\n        uint256 productId = products[productIndex].productId;\r\n        // product current owner from productId\r\n        address productOwner = productToOwner[productId];\r\n\r\n\r\n        //Byle bir rn var m yok mu?\r\n        require(\r\n            productOwner != address(0x0),\r\n            \"There is no product with the given secretId\"\r\n        );\r\n\r\n        //Satta bir rn var m yok mu?\r\n        require(\r\n            ownerProductCount[productOwner] > 0,\r\n            \"Seller product count is 0\"\r\n        );\r\n\r\n        //rn satn alnd m?\r\n        require(\r\n            products[productIndex].isSold == false,\r\n            \"Product is already sold, Secret id is scanned before\"\r\n        );\r\n\r\n        // rn satn alnd olarak iaretlenir.\r\n        products[productIndex].isSold = true;\r\n        productToOwner[productId] = msg.sender;\r\n        // rn satcsnn rn says azaltlr\r\n        ownerProductCount[productOwner]--;\r\n        ownerProductCount[msg.sender]++;\r\n\r\n        emit productPurchasedByConsumer(productId, msg.sender);\r\n\r\n        return true;\r\n    }\r\n\r\n\r\n    // should be called for reselling\r\n    function sellProduct(uint256 _productId, address _buyerAddress)\r\n        external\r\n        sellerCheck(_productId)\r\n        soldCheck(_productId)\r\n        returns (bool)\r\n    {\r\n\r\n        address productOwner = productToOwner[_productId];\r\n\r\n        //Byle bir rn var m yok mu?\r\n        require(\r\n            productOwner != address(0x0),\r\n            \"There is no product with the given secretId\"\r\n        );\r\n        //Kullanc kendine rn satamaz\r\n        require(msg.sender != _buyerAddress, \"You already own this product\");\r\n        require(ownerProductCount[msg.sender] > 0, \"You own 0 product\");\r\n\r\n        uint256 productIndex = productIdToProductIndex[_productId];\r\n\r\n\r\n        //rnn yeni sahibi tanmlanr ve satld olarak iaretlenir\r\n        products[productIndex].isSold = true;\r\n        productToOwner[_productId] = _buyerAddress;\r\n        \r\n\r\n        // changing limit\r\n        ownerProductCount[msg.sender]--;\r\n        ownerProductCount[_buyerAddress]++;\r\n\r\n        emit productSoldSuccessfully(_productId, msg.sender, _buyerAddress);\r\n\r\n        return true;\r\n    }\r\n    \r\n\r\n\r\n    function productDetails(uint256 _productId)\r\n        external\r\n        view\r\n        returns (\r\n            string memory name,\r\n            string memory details,\r\n            uint256 price,\r\n            bool isSold,\r\n            string memory isOriginal\r\n        )\r\n    {\r\n        uint256 index = productIdToProductIndex[_productId];\r\n        Product memory tP = products[index];\r\n        address ownerAddress = productToOwner[_productId];\r\n\r\n        if(ownerAddress != address(0x0)){\r\n            return (tP.name, tP.details, tP.price, tP.isSold, \"Original\");\r\n        }\r\n        else{\r\n            return (\"NA\", \"NA\", 0, false, \"Fake\");\r\n        }\r\n        \r\n    }\r\n\r\n\r\n    function productLength()\r\n        public\r\n        view\r\n        onlyOwner\r\n        returns (uint256 _productArrayLength)\r\n    {\r\n        return products.length;\r\n    }\r\n\r\n}",
  "sourcePath": "C:\\Users\\alioz\\Documents\\ProductScan\\contracts\\ProductScan.sol",
  "compiler": {
    "name": "solc",
    "version": "0.8.13+commit.abaa5c0e.Emscripten.clang"
  },
  "schemaVersion": "3.4.6",
  "updatedAt": "2023-01-07T10:43:56.268Z",
  "devdoc": {
    "kind": "dev",
    "methods": {
      "owner()": {
        "details": "Returns the address of the current owner."
      },
      "transferOwnership(address)": {
        "details": "Transfers ownership of the contract to a new account (`newOwner`). Can only be called by the current owner."
      }
    },
    "version": 1
  },
  "userdoc": {
    "kind": "user",
    "methods": {},
    "version": 1
  }
}