{
  "contractName": "product",
  "abi": [
    {
      "inputs": [],
      "stateMutability": "nonpayable",
      "type": "constructor"
    },
    {
      "anonymous": false,
      "inputs": [
        {
          "indexed": true,
          "internalType": "address",
          "name": "previousOwner",
          "type": "address"
        },
        {
          "indexed": true,
          "internalType": "address",
          "name": "newOwner",
          "type": "address"
        }
      ],
      "name": "OwnershipTransferred",
      "type": "event"
    },
    {
      "anonymous": false,
      "inputs": [
        {
          "indexed": false,
          "internalType": "address",
          "name": "setter",
          "type": "address"
        }
      ],
      "name": "constructorSet",
      "type": "event"
    },
    {
      "anonymous": false,
      "inputs": [
        {
          "indexed": false,
          "internalType": "uint256",
          "name": "productId",
          "type": "uint256"
        },
        {
          "indexed": false,
          "internalType": "address",
          "name": "owner",
          "type": "address"
        }
      ],
      "name": "newProductAdded",
      "type": "event"
    },
    {
      "anonymous": false,
      "inputs": [
        {
          "indexed": false,
          "internalType": "string",
          "name": "name",
          "type": "string"
        },
        {
          "indexed": false,
          "internalType": "address",
          "name": "seller",
          "type": "address"
        }
      ],
      "name": "newSellerRegistered",
      "type": "event"
    },
    {
      "anonymous": false,
      "inputs": [
        {
          "indexed": false,
          "internalType": "address",
          "name": "buyer",
          "type": "address"
        }
      ],
      "name": "productPurchased",
      "type": "event"
    },
    {
      "anonymous": false,
      "inputs": [
        {
          "indexed": false,
          "internalType": "uint256",
          "name": "productId",
          "type": "uint256"
        },
        {
          "indexed": false,
          "internalType": "address",
          "name": "buyer",
          "type": "address"
        }
      ],
      "name": "productPurchasedByConsumer",
      "type": "event"
    },
    {
      "anonymous": false,
      "inputs": [
        {
          "indexed": false,
          "internalType": "uint256",
          "name": "productId",
          "type": "uint256"
        },
        {
          "indexed": false,
          "internalType": "address",
          "name": "seller",
          "type": "address"
        },
        {
          "indexed": false,
          "internalType": "address",
          "name": "buyer",
          "type": "address"
        }
      ],
      "name": "productSoldSuccessfully",
      "type": "event"
    },
    {
      "inputs": [],
      "name": "owner",
      "outputs": [
        {
          "internalType": "address",
          "name": "",
          "type": "address"
        }
      ],
      "stateMutability": "view",
      "type": "function"
    },
    {
      "inputs": [
        {
          "internalType": "address",
          "name": "newOwner",
          "type": "address"
        }
      ],
      "name": "transferOwnership",
      "outputs": [],
      "stateMutability": "nonpayable",
      "type": "function"
    },
    {
      "inputs": [
        {
          "internalType": "bytes32",
          "name": "",
          "type": "bytes32"
        }
      ],
      "name": "vProducts",
      "outputs": [
        {
          "internalType": "bool",
          "name": "",
          "type": "bool"
        }
      ],
      "stateMutability": "view",
      "type": "function"
    },
    {
      "inputs": [],
      "name": "getAllProducts",
      "outputs": [
        {
          "components": [
            {
              "internalType": "uint256",
              "name": "productId",
              "type": "uint256"
            },
            {
              "internalType": "uint256",
              "name": "price",
              "type": "uint256"
            },
            {
              "internalType": "string",
              "name": "name",
              "type": "string"
            },
            {
              "internalType": "bool",
              "name": "isSold",
              "type": "bool"
            },
            {
              "internalType": "string",
              "name": "details",
              "type": "string"
            },
            {
              "internalType": "uint256",
              "name": "productionDate",
              "type": "uint256"
            }
          ],
          "internalType": "struct product.Product[]",
          "name": "",
          "type": "tuple[]"
        }
      ],
      "stateMutability": "view",
      "type": "function"
    },
    {
      "inputs": [
        {
          "internalType": "uint256",
          "name": "_productId",
          "type": "uint256"
        },
        {
          "internalType": "bytes32",
          "name": "_secretId",
          "type": "bytes32"
        },
        {
          "internalType": "uint256",
          "name": "_price",
          "type": "uint256"
        },
        {
          "internalType": "string",
          "name": "_name",
          "type": "string"
        },
        {
          "internalType": "string",
          "name": "_details",
          "type": "string"
        },
        {
          "internalType": "uint256",
          "name": "_productionDate",
          "type": "uint256"
        }
      ],
      "name": "addProduct",
      "outputs": [
        {
          "internalType": "bool",
          "name": "",
          "type": "bool"
        }
      ],
      "stateMutability": "nonpayable",
      "type": "function"
    },
    {
      "inputs": [
        {
          "internalType": "bytes32",
          "name": "_secretId",
          "type": "bytes32"
        }
      ],
      "name": "buyProduct",
      "outputs": [
        {
          "internalType": "bool",
          "name": "",
          "type": "bool"
        }
      ],
      "stateMutability": "nonpayable",
      "type": "function"
    },
    {
      "inputs": [
        {
          "internalType": "uint256",
          "name": "_productId",
          "type": "uint256"
        }
      ],
      "name": "productDetails",
      "outputs": [
        {
          "internalType": "string",
          "name": "name",
          "type": "string"
        },
        {
          "internalType": "uint256",
          "name": "price",
          "type": "uint256"
        },
        {
          "internalType": "bool",
          "name": "isSold",
          "type": "bool"
        },
        {
          "internalType": "bytes32",
          "name": "isOriginal",
          "type": "bytes32"
        }
      ],
      "stateMutability": "view",
      "type": "function"
    }
  ],
  "bytecode": "0x60806040523480156200001157600080fd5b506000620000246200010160201b60201c565b9050806000806101000a81548173ffffffffffffffffffffffffffffffffffffffff021916908373ffffffffffffffffffffffffffffffffffffffff1602179055508073ffffffffffffffffffffffffffffffffffffffff16600073ffffffffffffffffffffffffffffffffffffffff167f8be0079c531659141344cd1fd0a4f28419497f9722a3daafe3b4186f6b6457e060405160405180910390a3507f554313c8aee45460ac12e0a92818ed96443f15b4b0b008141f8db8c3f5fa6eef33604051620000f391906200014e565b60405180910390a16200016b565b600033905090565b600073ffffffffffffffffffffffffffffffffffffffff82169050919050565b6000620001368262000109565b9050919050565b620001488162000129565b82525050565b60006020820190506200016560008301846200013d565b92915050565b611bac806200017b6000396000f3fe608060405234801561001057600080fd5b506004361061007d5760003560e01c806375d7b0271161005b57806375d7b027146101035780638da5cb5b14610133578063943a4dfc14610151578063f2fde38b146101815761007d565b806302ee3a521461008257806348f7eb30146100a05780635476a3a3146100d3575b600080fd5b61008a61019d565b6040516100979190611251565b60405180910390f35b6100ba60048036038101906100b591906112b3565b6104ee565b6040516100ca9493929190611361565b60405180910390f35b6100ed60048036038101906100e8919061150e565b61074f565b6040516100fa91906115d3565b60405180910390f35b61011d600480360381019061011891906115ee565b610aa5565b60405161012a91906115d3565b60405180910390f35b61013b610ac5565b604051610148919061165c565b60405180910390f35b61016b600480360381019061016691906115ee565b610aee565b60405161017891906115d3565b60405180910390f35b61019b600480360381019061019691906116a3565b610d8e565b005b60606000600760003373ffffffffffffffffffffffffffffffffffffffff1673ffffffffffffffffffffffffffffffffffffffff16815260200190815260200160002054905060008111610226576040517f08c379a000000000000000000000000000000000000000000000000000000000815260040161021d9061171c565b60405180910390fd5b60008167ffffffffffffffff811115610242576102416113e3565b5b60405190808252806020026020018201604052801561027b57816020015b610268610f57565b8152602001906001900390816102605790505b5090506000805b6001805490508110156104e4573373ffffffffffffffffffffffffffffffffffffffff1660096000600184815481106102be576102bd61173c565b5b906000526020600020906006020160000154815260200190815260200160002060009054906101000a900473ffffffffffffffffffffffffffffffffffffffff1673ffffffffffffffffffffffffffffffffffffffff16036104d1576001818154811061032e5761032d61173c565b5b90600052602060002090600602016040518060c0016040529081600082015481526020016001820154815260200160028201805461036b9061179a565b80601f01602080910402602001604051908101604052809291908181526020018280546103979061179a565b80156103e45780601f106103b9576101008083540402835291602001916103e4565b820191906000526020600020905b8154815290600101906020018083116103c757829003601f168201915b505050505081526020016003820160009054906101000a900460ff161515151581526020016004820180546104189061179a565b80601f01602080910402602001604051908101604052809291908181526020018280546104449061179a565b80156104915780601f1061046657610100808354040283529160200191610491565b820191906000526020600020905b81548152906001019060200180831161047457829003601f168201915b505050505081526020016005820154815250508383815181106104b7576104b661173c565b5b602002602001018190525081806104cd906117fa565b9250505b80806104dc906117fa565b915050610282565b5081935050505090565b6060600080600080600560008781526020019081526020016000205490506000600182815481106105225761052161173c565b5b90600052602060002090600602016040518060c0016040529081600082015481526020016001820154815260200160028201805461055f9061179a565b80601f016020809104026020016040519081016040528092919081815260200182805461058b9061179a565b80156105d85780601f106105ad576101008083540402835291602001916105d8565b820191906000526020600020905b8154815290600101906020018083116105bb57829003601f168201915b505050505081526020016003820160009054906101000a900460ff1615151515815260200160048201805461060c9061179a565b80601f01602080910402602001604051908101604052809291908181526020018280546106389061179a565b80156106855780601f1061065a57610100808354040283529160200191610685565b820191906000526020600020905b81548152906001019060200180831161066857829003601f168201915b505050505081526020016005820154815250509050600082146106e1578060400151816020015182606001517f4f726967696e616c00000000000000000000000000000000000000000000000095509550955095505050610748565b6000806040518060400160405280600281526020017f4e4100000000000000000000000000000000000000000000000000000000000081525091907f46616b6500000000000000000000000000000000000000000000000000000000955095509550955050505b9193509193565b6000610759610f4f565b73ffffffffffffffffffffffffffffffffffffffff1660008054906101000a900473ffffffffffffffffffffffffffffffffffffffff1673ffffffffffffffffffffffffffffffffffffffff16146107e6576040517f08c379a00000000000000000000000000000000000000000000000000000000081526004016107dd9061188e565b60405180910390fd5b600060056000898152602001908152602001600020541461083c576040517f08c379a0000000000000000000000000000000000000000000000000000000008152600401610833906118fa565b60405180910390fd5b6000600660008881526020019081526020016000205414610892576040517f08c379a000000000000000000000000000000000000000000000000000000000815260040161088990611966565b60405180910390fd5b336009600089815260200190815260200160002060006101000a81548173ffffffffffffffffffffffffffffffffffffffff021916908373ffffffffffffffffffffffffffffffffffffffff160217905550600760003373ffffffffffffffffffffffffffffffffffffffff1673ffffffffffffffffffffffffffffffffffffffff1681526020019081526020016000206000815480929190610934906117fa565b919050555060016040518060c00160405280898152602001878152602001868152602001600015158152602001858152602001848152509080600181540180825580915050600190039060005260206000209060060201600090919091909150600082015181600001556020820151816001015560408201518160020190805190602001906109c4929190610f8f565b5060608201518160030160006101000a81548160ff0219169083151502179055506080820151816004019080519060200190610a01929190610f8f565b5060a08201518160050155505060018080549050610a1f9190611986565b600560008981526020019081526020016000208190555060018080549050610a479190611986565b60066000888152602001908152602001600020819055507fbd8ac5c2f6ef8dd241a94a60d0a2a959593fc3457eda34e09a7d4f605366365c8733604051610a8f9291906119ba565b60405180910390a1600190509695505050505050565b60036020528060005260406000206000915054906101000a900460ff1681565b60008060009054906101000a900473ffffffffffffffffffffffffffffffffffffffff16905090565b60008060066000848152602001908152602001600020549050600060018281548110610b1d57610b1c61173c565b5b906000526020600020906006020160000154905060006009600083815260200190815260200160002060009054906101000a900473ffffffffffffffffffffffffffffffffffffffff1690506000600760008373ffffffffffffffffffffffffffffffffffffffff1673ffffffffffffffffffffffffffffffffffffffff1681526020019081526020016000205411610beb576040517f08c379a0000000000000000000000000000000000000000000000000000000008152600401610be290611a2f565b60405180910390fd5b6000151560018481548110610c0357610c0261173c565b5b906000526020600020906006020160030160009054906101000a900460ff16151514610c64576040517f08c379a0000000000000000000000000000000000000000000000000000000008152600401610c5b90611a9b565b60405180910390fd5b6001808481548110610c7957610c7861173c565b5b906000526020600020906006020160030160006101000a81548160ff02191690831515021790555060006009600084815260200190815260200160002060006101000a81548173ffffffffffffffffffffffffffffffffffffffff021916908373ffffffffffffffffffffffffffffffffffffffff160217905550600760008273ffffffffffffffffffffffffffffffffffffffff1673ffffffffffffffffffffffffffffffffffffffff1681526020019081526020016000206000815480929190610d4490611abb565b91905055507f53b435a434268e3562a0a9c12fa3245e841643c0a168cc7fff1fac5de6b30e908233604051610d7a9291906119ba565b60405180910390a160019350505050919050565b610d96610f4f565b73ffffffffffffffffffffffffffffffffffffffff1660008054906101000a900473ffffffffffffffffffffffffffffffffffffffff1673ffffffffffffffffffffffffffffffffffffffff1614610e23576040517f08c379a0000000000000000000000000000000000000000000000000000000008152600401610e1a9061188e565b60405180910390fd5b600073ffffffffffffffffffffffffffffffffffffffff168173ffffffffffffffffffffffffffffffffffffffff1603610e92576040517f08c379a0000000000000000000000000000000000000000000000000000000008152600401610e8990611b56565b60405180910390fd5b8073ffffffffffffffffffffffffffffffffffffffff1660008054906101000a900473ffffffffffffffffffffffffffffffffffffffff1673ffffffffffffffffffffffffffffffffffffffff167f8be0079c531659141344cd1fd0a4f28419497f9722a3daafe3b4186f6b6457e060405160405180910390a3806000806101000a81548173ffffffffffffffffffffffffffffffffffffffff021916908373ffffffffffffffffffffffffffffffffffffffff16021790555050565b600033905090565b6040518060c0016040528060008152602001600081526020016060815260200160001515815260200160608152602001600081525090565b828054610f9b9061179a565b90600052602060002090601f016020900481019282610fbd5760008555611004565b82601f10610fd657805160ff1916838001178555611004565b82800160010185558215611004579182015b82811115611003578251825591602001919060010190610fe8565b5b5090506110119190611015565b5090565b5b8082111561102e576000816000905550600101611016565b5090565b600081519050919050565b600082825260208201905092915050565b6000819050602082019050919050565b6000819050919050565b6110718161105e565b82525050565b600081519050919050565b600082825260208201905092915050565b60005b838110156110b1578082015181840152602081019050611096565b838111156110c0576000848401525b50505050565b6000601f19601f8301169050919050565b60006110e282611077565b6110ec8185611082565b93506110fc818560208601611093565b611105816110c6565b840191505092915050565b60008115159050919050565b61112581611110565b82525050565b600060c0830160008301516111436000860182611068565b5060208301516111566020860182611068565b506040830151848203604086015261116e82826110d7565b9150506060830151611183606086018261111c565b506080830151848203608086015261119b82826110d7565b91505060a08301516111b060a0860182611068565b508091505092915050565b60006111c7838361112b565b905092915050565b6000602082019050919050565b60006111e782611032565b6111f1818561103d565b9350836020820285016112038561104e565b8060005b8581101561123f578484038952815161122085826111bb565b945061122b836111cf565b925060208a01995050600181019050611207565b50829750879550505050505092915050565b6000602082019050818103600083015261126b81846111dc565b905092915050565b6000604051905090565b600080fd5b600080fd5b6112908161105e565b811461129b57600080fd5b50565b6000813590506112ad81611287565b92915050565b6000602082840312156112c9576112c861127d565b5b60006112d78482850161129e565b91505092915050565b600082825260208201905092915050565b60006112fc82611077565b61130681856112e0565b9350611316818560208601611093565b61131f816110c6565b840191505092915050565b6113338161105e565b82525050565b61134281611110565b82525050565b6000819050919050565b61135b81611348565b82525050565b6000608082019050818103600083015261137b81876112f1565b905061138a602083018661132a565b6113976040830185611339565b6113a46060830184611352565b95945050505050565b6113b681611348565b81146113c157600080fd5b50565b6000813590506113d3816113ad565b92915050565b600080fd5b600080fd5b7f4e487b7100000000000000000000000000000000000000000000000000000000600052604160045260246000fd5b61141b826110c6565b810181811067ffffffffffffffff8211171561143a576114396113e3565b5b80604052505050565b600061144d611273565b90506114598282611412565b919050565b600067ffffffffffffffff821115611479576114786113e3565b5b611482826110c6565b9050602081019050919050565b82818337600083830152505050565b60006114b16114ac8461145e565b611443565b9050828152602081018484840111156114cd576114cc6113de565b5b6114d884828561148f565b509392505050565b600082601f8301126114f5576114f46113d9565b5b813561150584826020860161149e565b91505092915050565b60008060008060008060c0878903121561152b5761152a61127d565b5b600061153989828a0161129e565b965050602061154a89828a016113c4565b955050604061155b89828a0161129e565b945050606087013567ffffffffffffffff81111561157c5761157b611282565b5b61158889828a016114e0565b935050608087013567ffffffffffffffff8111156115a9576115a8611282565b5b6115b589828a016114e0565b92505060a06115c689828a0161129e565b9150509295509295509295565b60006020820190506115e86000830184611339565b92915050565b6000602082840312156116045761160361127d565b5b6000611612848285016113c4565b91505092915050565b600073ffffffffffffffffffffffffffffffffffffffff82169050919050565b60006116468261161b565b9050919050565b6116568161163b565b82525050565b6000602082019050611671600083018461164d565b92915050565b6116808161163b565b811461168b57600080fd5b50565b60008135905061169d81611677565b92915050565b6000602082840312156116b9576116b861127d565b5b60006116c78482850161168e565b91505092915050565b7f4e6f2070726f6475637473000000000000000000000000000000000000000000600082015250565b6000611706600b836112e0565b9150611711826116d0565b602082019050919050565b60006020820190508181036000830152611735816116f9565b9050919050565b7f4e487b7100000000000000000000000000000000000000000000000000000000600052603260045260246000fd5b7f4e487b7100000000000000000000000000000000000000000000000000000000600052602260045260246000fd5b600060028204905060018216806117b257607f821691505b6020821081036117c5576117c461176b565b5b50919050565b7f4e487b7100000000000000000000000000000000000000000000000000000000600052601160045260246000fd5b60006118058261105e565b91507fffffffffffffffffffffffffffffffffffffffffffffffffffffffffffffffff8203611837576118366117cb565b5b600182019050919050565b7f4f776e61626c653a2063616c6c6572206973206e6f7420746865206f776e6572600082015250565b60006118786020836112e0565b915061188382611842565b602082019050919050565b600060208201905081810360008301526118a78161186b565b9050919050565b7f50726f647563742069642069732075736564206265666f726500000000000000600082015250565b60006118e46019836112e0565b91506118ef826118ae565b602082019050919050565b60006020820190508181036000830152611913816118d7565b9050919050565b7f5365637265742069642069732075736564206265666f72650000000000000000600082015250565b60006119506018836112e0565b915061195b8261191a565b602082019050919050565b6000602082019050818103600083015261197f81611943565b9050919050565b60006119918261105e565b915061199c8361105e565b9250828210156119af576119ae6117cb565b5b828203905092915050565b60006040820190506119cf600083018561132a565b6119dc602083018461164d565b9392505050565b7f73656c6c65722070726f6475637420636f756e74206973203000000000000000600082015250565b6000611a196019836112e0565b9150611a24826119e3565b602082019050919050565b60006020820190508181036000830152611a4881611a0c565b9050919050565b7f536563726574206964206973207363616e6e6564206265666f72650000000000600082015250565b6000611a85601b836112e0565b9150611a9082611a4f565b602082019050919050565b60006020820190508181036000830152611ab481611a78565b9050919050565b6000611ac68261105e565b915060008203611ad957611ad86117cb565b5b600182039050919050565b7f4f776e61626c653a206e6577206f776e657220697320746865207a65726f206160008201527f6464726573730000000000000000000000000000000000000000000000000000602082015250565b6000611b406026836112e0565b9150611b4b82611ae4565b604082019050919050565b60006020820190508181036000830152611b6f81611b33565b905091905056fea26469706673582212201ee3536d7349d04e3965e45dd00e2aac5e4b8d6f297925cb342276676e6aa9b364736f6c634300080d0033",
  "immutableReferences": {},
  "source": "// SPDX-License-Identifier: MIT\r\npragma solidity >=0.4.22 <0.9.0;\r\nimport \"./Ownership.sol\";\r\n\r\ncontract product is Ownership {\r\n\r\n    //rnler\r\n    Product[] private products;\r\n    //Satclar\r\n    SellerInfo[] private sellers;\r\n\r\n    //rn\r\n    struct Product {\r\n        uint256 productId;\r\n        uint256 price;\r\n        string name;\r\n        bool isSold;\r\n        string details;\r\n        //Tarihler 1970'ten bu yana gelen saniyeler ile hesaplanr!!!\r\n        uint productionDate;\r\n    }\r\n\r\n\r\n    //Satc\r\n    struct SellerInfo {\r\n        uint256 reportCount;\r\n        string name;\r\n        string details;\r\n    }\r\n\r\n    mapping(bytes32 => bool) public vProducts;\r\n\r\n    constructor(){\r\n \r\n        emit constructorSet(msg.sender);\r\n    }\r\n\r\n\r\n    //Mapping ksm\r\n    mapping(address => uint256) sellerAddressToSellerIndex;\r\n\r\n    mapping(uint256 => uint256) private productIdToProductIndex;\r\n\r\n    mapping(bytes32 => uint256) private secretIdToProductIndex;\r\n\r\n    mapping(address => uint256) private ownerProductCount;\r\n\r\n    mapping(uint256 => bool) productIdUsedForReport;\r\n\r\n    mapping(uint256 => address) private productToOwner;\r\n\r\n\r\n    //Eventler\r\n    event constructorSet(address setter);\r\n\r\n    event newProductAdded(uint256 productId, address owner);\r\n\r\n    event productPurchased(address buyer);\r\n\r\n    event productSoldSuccessfully(\r\n        uint256 productId,\r\n        address seller,\r\n        address buyer\r\n    );\r\n    event productPurchasedByConsumer(uint256 productId, address buyer);\r\n\r\n    event newSellerRegistered(string name, address seller);\r\n\r\n\r\n\r\n    modifier sellerCheck(uint256 _productId) {\r\n        // check if the seller owns the product or not...\r\n        address productOwner = productToOwner[_productId];\r\n        require(msg.sender == productOwner, \"You do not own this product\");\r\n        _;\r\n    }\r\n\r\n    modifier soldCheck(uint256 _productId) {\r\n        // finding product index\r\n        uint256 productIndex = productIdToProductIndex[_productId];\r\n\r\n        // finding product from index\r\n        bool isSold = products[productIndex].isSold;\r\n\r\n        require(isSold == false, \"product is already sold\");\r\n        _;\r\n    }\r\n    // modifier onlySideContract() {\r\n    //     require(msg.sender == sideContract, \"You are not side contract\");\r\n    //     require(sideContract != address(0), \"side contract is not set yet\");\r\n    //     _;\r\n    // }\r\n\r\n    \r\n\r\n    // function registerSeller(string memory _name, string memory _details)\r\n    //     external\r\n    //     returns (string memory status)\r\n    // {\r\n    //     //checking seller is not registered before\r\n    //     require(\r\n    //         sellerAddressToSellerIndex[msg.sender] == 0,\r\n    //         \"You are already registered\"\r\n    //     );\r\n\r\n    //     //creating new instance and storing in array\r\n    //     sellers.push(SellerInfo(0, _name, _details));\r\n\r\n    //     //assingning index for future search\r\n    //     sellerAddressToSellerIndex[msg.sender] = sellers.length - 1;\r\n\r\n    //     emit newSellerRegistered(_name, msg.sender);\r\n    //     return \"Seller registered successfully\";\r\n    // }\r\n\r\n    // function viewProducts () public view returns(bytes32[] memory, bytes32[] memory,bytes32[] memory) {\r\n    //     return(products,owners,pStatus);\r\n    // }\r\n\r\n    function getAllProducts() public view returns (Product[] memory) {\r\n        uint256 productCount = ownerProductCount[msg.sender];\r\n        //rn var m?\r\n        require(productCount > 0, \"No products\");\r\n\r\n        // push method not available for memory array...\r\n        Product[] memory ownedProducts = new Product[](productCount);\r\n        uint256 j = 0;\r\n\r\n        for (uint256 i = 0; i < products.length; i++) {\r\n            if (productToOwner[products[i].productId] == msg.sender) {\r\n                ownedProducts[j] = products[i];\r\n                j++;\r\n            }\r\n        }\r\n        return ownedProducts;\r\n    }\r\n\r\n\r\n    function addProduct(\r\n        uint256 _productId,\r\n        bytes32 _secretId,\r\n        uint256 _price,\r\n        string memory _name,\r\n        string memory _details,\r\n        uint _productionDate\r\n    ) external onlyOwner returns (bool) {\r\n        //Product ID daha nce kullanld m?\r\n        require(\r\n            productIdToProductIndex[_productId] == 0,\r\n            \"Product id is used before\"\r\n        );\r\n        require(\r\n            secretIdToProductIndex[_secretId] == 0,\r\n            \"Secret id is used before\"\r\n        );\r\n        //Fonksiyonu aran kii sahip olur\r\n        productToOwner[_productId] = msg.sender;\r\n        ownerProductCount[msg.sender]++;\r\n\r\n        //Diziye rn ekleme:\r\n        // uint256 productId;\r\n        // uint256 price;\r\n        // string name;\r\n        // bool isSold;\r\n        // string details;\r\n        // //Tarihler 1970'ten bu yana gelen saniyeler ile hesaplanr!!!\r\n        // uint productionDate;\r\n        products.push(Product(_productId, _price, _name, false, _details, _productionDate));\r\n\r\n        // allProd[msg.sender].push(Product(_productId, _price, _name, _details, false));\r\n        //setting index in mappings\r\n        productIdToProductIndex[_productId] = products.length - 1;\r\n        secretIdToProductIndex[_secretId] = products.length - 1;\r\n\r\n        emit newProductAdded(_productId, msg.sender);\r\n\r\n        return true;\r\n    }\r\n\r\n\r\n    function buyProduct(bytes32 _secretId)\r\n        external\r\n        returns (bool)\r\n    {\r\n        //onlySideContract\r\n        // finding product index using secret id from the in the common storage...\r\n        uint256 productIndex = secretIdToProductIndex[_secretId];\r\n        // productId from product\r\n        uint256 productId = products[productIndex].productId;\r\n        // product current owner from productId\r\n        address productOwner = productToOwner[productId];\r\n\r\n        //Satta bir rn var m yok mu?\r\n        require(\r\n            ownerProductCount[productOwner] > 0,\r\n            \"seller product count is 0\"\r\n        );\r\n\r\n        //rn satn alnd m?\r\n        require(\r\n            products[productIndex].isSold == false,\r\n            \"Secret id is scanned before\"\r\n        );\r\n\r\n        // rn satn alnd olarak iaretlenir.\r\n        products[productIndex].isSold = true;\r\n        productToOwner[productId] = address(0);\r\n        // rn satcs says azaltlr\r\n        ownerProductCount[productOwner]--;\r\n\r\n        emit productPurchasedByConsumer(productId, msg.sender);\r\n\r\n        return true;\r\n    }\r\n\r\n\r\n    function productDetails(uint256 _productId)\r\n        external\r\n        view\r\n        returns (\r\n            string memory name,\r\n            uint256 price,\r\n            bool isSold,\r\n            bytes32 isOriginal\r\n        )\r\n    {\r\n        uint256 index = productIdToProductIndex[_productId];\r\n        Product memory tP = products[index];\r\n        if(index != 0){\r\n            return (tP.name, tP.price, tP.isSold, \"Original\");\r\n        }\r\n        else{\r\n            return (\"NA\", 0, false, \"Fake\");\r\n        }\r\n        \r\n    }\r\n\r\n}",
  "sourcePath": "C:\\Users\\alioz\\Documents\\ProductScan\\contracts\\contracts.sol",
  "compiler": {
    "name": "solc",
    "version": "0.8.13+commit.abaa5c0e.Emscripten.clang"
  },
  "schemaVersion": "3.4.6",
  "updatedAt": "2022-12-09T19:56:57.236Z",
  "devdoc": {
    "kind": "dev",
    "methods": {
      "owner()": {
        "details": "Returns the address of the current owner."
      },
      "transferOwnership(address)": {
        "details": "Transfers ownership of the contract to a new account (`newOwner`). Can only be called by the current owner."
      }
    },
    "version": 1
  },
  "userdoc": {
    "kind": "user",
    "methods": {},
    "version": 1
  }
}