{
  "contractName": "ProductScan",
  "abi": [
    {
      "inputs": [],
      "stateMutability": "nonpayable",
      "type": "constructor"
    },
    {
      "anonymous": false,
      "inputs": [
        {
          "indexed": true,
          "internalType": "address",
          "name": "previousOwner",
          "type": "address"
        },
        {
          "indexed": true,
          "internalType": "address",
          "name": "newOwner",
          "type": "address"
        }
      ],
      "name": "OwnershipTransferred",
      "type": "event"
    },
    {
      "anonymous": false,
      "inputs": [
        {
          "indexed": false,
          "internalType": "address",
          "name": "setter",
          "type": "address"
        }
      ],
      "name": "constructorSet",
      "type": "event"
    },
    {
      "anonymous": false,
      "inputs": [
        {
          "indexed": false,
          "internalType": "uint256",
          "name": "productId",
          "type": "uint256"
        },
        {
          "indexed": false,
          "internalType": "address",
          "name": "owner",
          "type": "address"
        }
      ],
      "name": "newProductAdded",
      "type": "event"
    },
    {
      "anonymous": false,
      "inputs": [
        {
          "indexed": false,
          "internalType": "string",
          "name": "name",
          "type": "string"
        },
        {
          "indexed": false,
          "internalType": "address",
          "name": "seller",
          "type": "address"
        }
      ],
      "name": "newSellerRegistered",
      "type": "event"
    },
    {
      "anonymous": false,
      "inputs": [
        {
          "indexed": false,
          "internalType": "address",
          "name": "buyer",
          "type": "address"
        }
      ],
      "name": "productPurchased",
      "type": "event"
    },
    {
      "anonymous": false,
      "inputs": [
        {
          "indexed": false,
          "internalType": "uint256",
          "name": "productId",
          "type": "uint256"
        },
        {
          "indexed": false,
          "internalType": "address",
          "name": "buyer",
          "type": "address"
        }
      ],
      "name": "productPurchasedByConsumer",
      "type": "event"
    },
    {
      "anonymous": false,
      "inputs": [
        {
          "indexed": false,
          "internalType": "uint256",
          "name": "productId",
          "type": "uint256"
        },
        {
          "indexed": false,
          "internalType": "address",
          "name": "seller",
          "type": "address"
        },
        {
          "indexed": false,
          "internalType": "address",
          "name": "buyer",
          "type": "address"
        }
      ],
      "name": "productSoldSuccessfully",
      "type": "event"
    },
    {
      "inputs": [],
      "name": "owner",
      "outputs": [
        {
          "internalType": "address",
          "name": "",
          "type": "address"
        }
      ],
      "stateMutability": "view",
      "type": "function"
    },
    {
      "inputs": [
        {
          "internalType": "address",
          "name": "newOwner",
          "type": "address"
        }
      ],
      "name": "transferOwnership",
      "outputs": [],
      "stateMutability": "nonpayable",
      "type": "function"
    },
    {
      "inputs": [],
      "name": "getAllOwnedProducts",
      "outputs": [
        {
          "components": [
            {
              "internalType": "uint256",
              "name": "productId",
              "type": "uint256"
            },
            {
              "internalType": "uint256",
              "name": "price",
              "type": "uint256"
            },
            {
              "internalType": "string",
              "name": "name",
              "type": "string"
            },
            {
              "internalType": "bool",
              "name": "isSold",
              "type": "bool"
            },
            {
              "internalType": "string",
              "name": "details",
              "type": "string"
            },
            {
              "internalType": "uint256",
              "name": "productionDate",
              "type": "uint256"
            }
          ],
          "internalType": "struct ProductScan.Product[]",
          "name": "",
          "type": "tuple[]"
        }
      ],
      "stateMutability": "view",
      "type": "function"
    },
    {
      "inputs": [
        {
          "internalType": "uint256",
          "name": "_productId",
          "type": "uint256"
        },
        {
          "internalType": "bytes32",
          "name": "_secretId",
          "type": "bytes32"
        },
        {
          "internalType": "uint256",
          "name": "_price",
          "type": "uint256"
        },
        {
          "internalType": "string",
          "name": "_name",
          "type": "string"
        },
        {
          "internalType": "string",
          "name": "_details",
          "type": "string"
        },
        {
          "internalType": "uint256",
          "name": "_productionDate",
          "type": "uint256"
        }
      ],
      "name": "addProduct",
      "outputs": [
        {
          "internalType": "bool",
          "name": "",
          "type": "bool"
        }
      ],
      "stateMutability": "nonpayable",
      "type": "function"
    },
    {
      "inputs": [
        {
          "internalType": "bytes32",
          "name": "_secretId",
          "type": "bytes32"
        }
      ],
      "name": "buyProduct",
      "outputs": [
        {
          "internalType": "bool",
          "name": "",
          "type": "bool"
        }
      ],
      "stateMutability": "nonpayable",
      "type": "function"
    },
    {
      "inputs": [
        {
          "internalType": "uint256",
          "name": "_productId",
          "type": "uint256"
        },
        {
          "internalType": "address",
          "name": "_buyerAddress",
          "type": "address"
        }
      ],
      "name": "sellProduct",
      "outputs": [
        {
          "internalType": "bool",
          "name": "",
          "type": "bool"
        }
      ],
      "stateMutability": "nonpayable",
      "type": "function"
    },
    {
      "inputs": [
        {
          "internalType": "uint256",
          "name": "_productId",
          "type": "uint256"
        }
      ],
      "name": "productDetails",
      "outputs": [
        {
          "internalType": "string",
          "name": "name",
          "type": "string"
        },
        {
          "internalType": "string",
          "name": "details",
          "type": "string"
        },
        {
          "internalType": "uint256",
          "name": "price",
          "type": "uint256"
        },
        {
          "internalType": "bool",
          "name": "isSold",
          "type": "bool"
        },
        {
          "internalType": "string",
          "name": "isOriginal",
          "type": "string"
        },
        {
          "internalType": "uint256",
          "name": "productionDate",
          "type": "uint256"
        }
      ],
      "stateMutability": "view",
      "type": "function"
    },
    {
      "inputs": [],
      "name": "productLength",
      "outputs": [
        {
          "internalType": "uint256",
          "name": "_productArrayLength",
          "type": "uint256"
        }
      ],
      "stateMutability": "view",
      "type": "function"
    }
  ],
  "bytecode": "0x60806040523480156200001157600080fd5b506000620000246200024760201b60201c565b9050806000806101000a81548173ffffffffffffffffffffffffffffffffffffffff021916908373ffffffffffffffffffffffffffffffffffffffff1602179055508073ffffffffffffffffffffffffffffffffffffffff16600073ffffffffffffffffffffffffffffffffffffffff167f8be0079c531659141344cd1fd0a4f28419497f9722a3daafe3b4186f6b6457e060405160405180910390a35060016040518060c0016040528060008152602001600081526020016040518060400160405280600a81526020017f44756d6d7920446174610000000000000000000000000000000000000000000081525081526020016000151581526020016040518060400160405280601981526020017f44756d6d79204461746120466f7220696e697469616c697a65000000000000008152508152602001600a815250908060018154018082558091505060019003906000526020600020906006020160009091909190915060008201518160000155602082015181600101556040820151816002019080519060200190620001bc9291906200024f565b5060608201518160030160006101000a81548160ff0219169083151502179055506080820151816004019080519060200190620001fb9291906200024f565b5060a0820151816005015550507f554313c8aee45460ac12e0a92818ed96443f15b4b0b008141f8db8c3f5fa6eef3360405162000239919062000344565b60405180910390a1620003c5565b600033905090565b8280546200025d9062000390565b90600052602060002090601f016020900481019282620002815760008555620002cd565b82601f106200029c57805160ff1916838001178555620002cd565b82800160010185558215620002cd579182015b82811115620002cc578251825591602001919060010190620002af565b5b509050620002dc9190620002e0565b5090565b5b80821115620002fb576000816000905550600101620002e1565b5090565b600073ffffffffffffffffffffffffffffffffffffffff82169050919050565b60006200032c82620002ff565b9050919050565b6200033e816200031f565b82525050565b60006020820190506200035b600083018462000333565b92915050565b7f4e487b7100000000000000000000000000000000000000000000000000000000600052602260045260246000fd5b60006002820490506001821680620003a957607f821691505b602082108103620003bf57620003be62000361565b5b50919050565b6124f480620003d56000396000f3fe608060405234801561001057600080fd5b50600436106100885760003560e01c80638da5cb5b1161005b5780638da5cb5b14610140578063943a4dfc1461015e578063bbcd300b1461018e578063f2fde38b146101ac57610088565b80630b5691401461008d57806348f7eb30146100bd5780635476a3a3146100f257806388cfab9214610122575b600080fd5b6100a760048036038101906100a2919061170d565b6101c8565b6040516100b49190611768565b60405180910390f35b6100d760048036038101906100d29190611783565b61063c565b6040516100e996959493929190611858565b60405180910390f35b61010c60048036038101906101079190611a39565b610982565b6040516101199190611768565b60405180910390f35b61012a610c42565b6040516101379190611cb8565b60405180910390f35b610148610f93565b6040516101559190611ce9565b60405180910390f35b61017860048036038101906101739190611d04565b610fbc565b6040516101859190611768565b60405180910390f35b61019661131f565b6040516101a39190611d31565b60405180910390f35b6101c660048036038101906101c19190611d4c565b6113c1565b005b60008260006006600083815260200190815260200160002060009054906101000a900473ffffffffffffffffffffffffffffffffffffffff1690508073ffffffffffffffffffffffffffffffffffffffff163373ffffffffffffffffffffffffffffffffffffffff1614610271576040517f08c379a000000000000000000000000000000000000000000000000000000000815260040161026890611dc5565b60405180910390fd5b846000600260008381526020019081526020016000205490506000600182815481106102a05761029f611de5565b5b906000526020600020906006020160030160009054906101000a900460ff1690506000151581151514610308576040517f08c379a00000000000000000000000000000000000000000000000000000000081526004016102ff90611e60565b60405180910390fd5b6000600660008a815260200190815260200160002060009054906101000a900473ffffffffffffffffffffffffffffffffffffffff169050600073ffffffffffffffffffffffffffffffffffffffff168173ffffffffffffffffffffffffffffffffffffffff16036103af576040517f08c379a00000000000000000000000000000000000000000000000000000000081526004016103a690611ef2565b60405180910390fd5b8773ffffffffffffffffffffffffffffffffffffffff163373ffffffffffffffffffffffffffffffffffffffff160361041d576040517f08c379a000000000000000000000000000000000000000000000000000000000815260040161041490611f5e565b60405180910390fd5b6000600460003373ffffffffffffffffffffffffffffffffffffffff1673ffffffffffffffffffffffffffffffffffffffff168152602001908152602001600020541161049f576040517f08c379a000000000000000000000000000000000000000000000000000000000815260040161049690611fca565b60405180910390fd5b6000600260008b815260200190815260200160002054905060018082815481106104cc576104cb611de5565b5b906000526020600020906006020160030160006101000a81548160ff02191690831515021790555088600660008c815260200190815260200160002060006101000a81548173ffffffffffffffffffffffffffffffffffffffff021916908373ffffffffffffffffffffffffffffffffffffffff160217905550600460003373ffffffffffffffffffffffffffffffffffffffff1673ffffffffffffffffffffffffffffffffffffffff168152602001908152602001600020600081548092919061059690612019565b9190505550600460008a73ffffffffffffffffffffffffffffffffffffffff1673ffffffffffffffffffffffffffffffffffffffff16815260200190815260200160002060008154809291906105eb90612042565b91905055507ff97c1f1de80ef41c13355fa2353dfcae96536bdf6fd7db677dc26d63bf92c6d88a338b6040516106239392919061208a565b60405180910390a1600197505050505050505092915050565b60608060008060606000806002600089815260200190815260200160002054905060006001828154811061067357610672611de5565b5b90600052602060002090600602016040518060c001604052908160008201548152602001600182015481526020016002820180546106b0906120f0565b80601f01602080910402602001604051908101604052809291908181526020018280546106dc906120f0565b80156107295780601f106106fe57610100808354040283529160200191610729565b820191906000526020600020905b81548152906001019060200180831161070c57829003601f168201915b505050505081526020016003820160009054906101000a900460ff1615151515815260200160048201805461075d906120f0565b80601f0160208091040260200160405190810160405280929190818152602001828054610789906120f0565b80156107d65780601f106107ab576101008083540402835291602001916107d6565b820191906000526020600020905b8154815290600101906020018083116107b957829003601f168201915b5050505050815260200160058201548152505090506000600660008b815260200190815260200160002060009054906101000a900473ffffffffffffffffffffffffffffffffffffffff169050600073ffffffffffffffffffffffffffffffffffffffff168173ffffffffffffffffffffffffffffffffffffffff16146108bb5781604001518260800151836020015184606001518560a001516040518060400160405280600881526020017f4f726967696e616c00000000000000000000000000000000000000000000000081525090985098509850985098509850505050610979565b60008060006040518060400160405280600281526020017f4e410000000000000000000000000000000000000000000000000000000000008152509291906040518060400160405280600281526020017f4e410000000000000000000000000000000000000000000000000000000000008152509291906040518060400160405280600481526020017f46616b6500000000000000000000000000000000000000000000000000000000815250909850985098509850985098505050505b91939550919395565b6000806002600089815260200190815260200160002054146109d9576040517f08c379a00000000000000000000000000000000000000000000000000000000081526004016109d09061216d565b60405180910390fd5b6000600360008881526020019081526020016000205414610a2f576040517f08c379a0000000000000000000000000000000000000000000000000000000008152600401610a26906121d9565b60405180910390fd5b336006600089815260200190815260200160002060006101000a81548173ffffffffffffffffffffffffffffffffffffffff021916908373ffffffffffffffffffffffffffffffffffffffff160217905550600460003373ffffffffffffffffffffffffffffffffffffffff1673ffffffffffffffffffffffffffffffffffffffff1681526020019081526020016000206000815480929190610ad190612042565b919050555060016040518060c0016040528089815260200187815260200186815260200160001515815260200185815260200184815250908060018154018082558091505060019003906000526020600020906006020160009091909190915060008201518160000155602082015181600101556040820151816002019080519060200190610b6192919061158a565b5060608201518160030160006101000a81548160ff0219169083151502179055506080820151816004019080519060200190610b9e92919061158a565b5060a08201518160050155505060018080549050610bbc91906121f9565b600260008981526020019081526020016000208190555060018080549050610be491906121f9565b60036000888152602001908152602001600020819055507fbd8ac5c2f6ef8dd241a94a60d0a2a959593fc3457eda34e09a7d4f605366365c8733604051610c2c92919061222d565b60405180910390a1600190509695505050505050565b60606000600460003373ffffffffffffffffffffffffffffffffffffffff1673ffffffffffffffffffffffffffffffffffffffff16815260200190815260200160002054905060008111610ccb576040517f08c379a0000000000000000000000000000000000000000000000000000000008152600401610cc2906122a2565b60405180910390fd5b60008167ffffffffffffffff811115610ce757610ce661190e565b5b604051908082528060200260200182016040528015610d2057816020015b610d0d611610565b815260200190600190039081610d055790505b5090506000805b600180549050811015610f89573373ffffffffffffffffffffffffffffffffffffffff166006600060018481548110610d6357610d62611de5565b5b906000526020600020906006020160000154815260200190815260200160002060009054906101000a900473ffffffffffffffffffffffffffffffffffffffff1673ffffffffffffffffffffffffffffffffffffffff1603610f765760018181548110610dd357610dd2611de5565b5b90600052602060002090600602016040518060c00160405290816000820154815260200160018201548152602001600282018054610e10906120f0565b80601f0160208091040260200160405190810160405280929190818152602001828054610e3c906120f0565b8015610e895780601f10610e5e57610100808354040283529160200191610e89565b820191906000526020600020905b815481529060010190602001808311610e6c57829003601f168201915b505050505081526020016003820160009054906101000a900460ff16151515158152602001600482018054610ebd906120f0565b80601f0160208091040260200160405190810160405280929190818152602001828054610ee9906120f0565b8015610f365780601f10610f0b57610100808354040283529160200191610f36565b820191906000526020600020905b815481529060010190602001808311610f1957829003601f168201915b50505050508152602001600582015481525050838381518110610f5c57610f5b611de5565b5b60200260200101819052508180610f7290612042565b9250505b8080610f8190612042565b915050610d27565b5081935050505090565b60008060009054906101000a900473ffffffffffffffffffffffffffffffffffffffff16905090565b60008060036000848152602001908152602001600020549050600060018281548110610feb57610fea611de5565b5b906000526020600020906006020160000154905060006006600083815260200190815260200160002060009054906101000a900473ffffffffffffffffffffffffffffffffffffffff169050600073ffffffffffffffffffffffffffffffffffffffff168173ffffffffffffffffffffffffffffffffffffffff16036110a6576040517f08c379a000000000000000000000000000000000000000000000000000000000815260040161109d90611ef2565b60405180910390fd5b6000600460008373ffffffffffffffffffffffffffffffffffffffff1673ffffffffffffffffffffffffffffffffffffffff1681526020019081526020016000205411611128576040517f08c379a000000000000000000000000000000000000000000000000000000000815260040161111f9061230e565b60405180910390fd5b60001515600184815481106111405761113f611de5565b5b906000526020600020906006020160030160009054906101000a900460ff161515146111a1576040517f08c379a0000000000000000000000000000000000000000000000000000000008152600401611198906123a0565b60405180910390fd5b60018084815481106111b6576111b5611de5565b5b906000526020600020906006020160030160006101000a81548160ff021916908315150217905550336006600084815260200190815260200160002060006101000a81548173ffffffffffffffffffffffffffffffffffffffff021916908373ffffffffffffffffffffffffffffffffffffffff160217905550600460008273ffffffffffffffffffffffffffffffffffffffff1673ffffffffffffffffffffffffffffffffffffffff168152602001908152602001600020600081548092919061128090612019565b9190505550600460003373ffffffffffffffffffffffffffffffffffffffff1673ffffffffffffffffffffffffffffffffffffffff16815260200190815260200160002060008154809291906112d590612042565b91905055507f53b435a434268e3562a0a9c12fa3245e841643c0a168cc7fff1fac5de6b30e90823360405161130b92919061222d565b60405180910390a160019350505050919050565b6000611329611582565b73ffffffffffffffffffffffffffffffffffffffff1660008054906101000a900473ffffffffffffffffffffffffffffffffffffffff1673ffffffffffffffffffffffffffffffffffffffff16146113b6576040517f08c379a00000000000000000000000000000000000000000000000000000000081526004016113ad9061240c565b60405180910390fd5b600180549050905090565b6113c9611582565b73ffffffffffffffffffffffffffffffffffffffff1660008054906101000a900473ffffffffffffffffffffffffffffffffffffffff1673ffffffffffffffffffffffffffffffffffffffff1614611456576040517f08c379a000000000000000000000000000000000000000000000000000000000815260040161144d9061240c565b60405180910390fd5b600073ffffffffffffffffffffffffffffffffffffffff168173ffffffffffffffffffffffffffffffffffffffff16036114c5576040517f08c379a00000000000000000000000000000000000000000000000000000000081526004016114bc9061249e565b60405180910390fd5b8073ffffffffffffffffffffffffffffffffffffffff1660008054906101000a900473ffffffffffffffffffffffffffffffffffffffff1673ffffffffffffffffffffffffffffffffffffffff167f8be0079c531659141344cd1fd0a4f28419497f9722a3daafe3b4186f6b6457e060405160405180910390a3806000806101000a81548173ffffffffffffffffffffffffffffffffffffffff021916908373ffffffffffffffffffffffffffffffffffffffff16021790555050565b600033905090565b828054611596906120f0565b90600052602060002090601f0160209004810192826115b857600085556115ff565b82601f106115d157805160ff19168380011785556115ff565b828001600101855582156115ff579182015b828111156115fe5782518255916020019190600101906115e3565b5b50905061160c9190611648565b5090565b6040518060c0016040528060008152602001600081526020016060815260200160001515815260200160608152602001600081525090565b5b80821115611661576000816000905550600101611649565b5090565b6000604051905090565b600080fd5b600080fd5b6000819050919050565b61168c81611679565b811461169757600080fd5b50565b6000813590506116a981611683565b92915050565b600073ffffffffffffffffffffffffffffffffffffffff82169050919050565b60006116da826116af565b9050919050565b6116ea816116cf565b81146116f557600080fd5b50565b600081359050611707816116e1565b92915050565b600080604083850312156117245761172361166f565b5b60006117328582860161169a565b9250506020611743858286016116f8565b9150509250929050565b60008115159050919050565b6117628161174d565b82525050565b600060208201905061177d6000830184611759565b92915050565b6000602082840312156117995761179861166f565b5b60006117a78482850161169a565b91505092915050565b600081519050919050565b600082825260208201905092915050565b60005b838110156117ea5780820151818401526020810190506117cf565b838111156117f9576000848401525b50505050565b6000601f19601f8301169050919050565b600061181b826117b0565b61182581856117bb565b93506118358185602086016117cc565b61183e816117ff565b840191505092915050565b61185281611679565b82525050565b600060c08201905081810360008301526118728189611810565b905081810360208301526118868188611810565b90506118956040830187611849565b6118a26060830186611759565b81810360808301526118b48185611810565b90506118c360a0830184611849565b979650505050505050565b6000819050919050565b6118e1816118ce565b81146118ec57600080fd5b50565b6000813590506118fe816118d8565b92915050565b600080fd5b600080fd5b7f4e487b7100000000000000000000000000000000000000000000000000000000600052604160045260246000fd5b611946826117ff565b810181811067ffffffffffffffff821117156119655761196461190e565b5b80604052505050565b6000611978611665565b9050611984828261193d565b919050565b600067ffffffffffffffff8211156119a4576119a361190e565b5b6119ad826117ff565b9050602081019050919050565b82818337600083830152505050565b60006119dc6119d784611989565b61196e565b9050828152602081018484840111156119f8576119f7611909565b5b611a038482856119ba565b509392505050565b600082601f830112611a2057611a1f611904565b5b8135611a308482602086016119c9565b91505092915050565b60008060008060008060c08789031215611a5657611a5561166f565b5b6000611a6489828a0161169a565b9650506020611a7589828a016118ef565b9550506040611a8689828a0161169a565b945050606087013567ffffffffffffffff811115611aa757611aa6611674565b5b611ab389828a01611a0b565b935050608087013567ffffffffffffffff811115611ad457611ad3611674565b5b611ae089828a01611a0b565b92505060a0611af189828a0161169a565b9150509295509295509295565b600081519050919050565b600082825260208201905092915050565b6000819050602082019050919050565b611b3381611679565b82525050565b600082825260208201905092915050565b6000611b55826117b0565b611b5f8185611b39565b9350611b6f8185602086016117cc565b611b78816117ff565b840191505092915050565b611b8c8161174d565b82525050565b600060c083016000830151611baa6000860182611b2a565b506020830151611bbd6020860182611b2a565b5060408301518482036040860152611bd58282611b4a565b9150506060830151611bea6060860182611b83565b5060808301518482036080860152611c028282611b4a565b91505060a0830151611c1760a0860182611b2a565b508091505092915050565b6000611c2e8383611b92565b905092915050565b6000602082019050919050565b6000611c4e82611afe565b611c588185611b09565b935083602082028501611c6a85611b1a565b8060005b85811015611ca65784840389528151611c878582611c22565b9450611c9283611c36565b925060208a01995050600181019050611c6e565b50829750879550505050505092915050565b60006020820190508181036000830152611cd28184611c43565b905092915050565b611ce3816116cf565b82525050565b6000602082019050611cfe6000830184611cda565b92915050565b600060208284031215611d1a57611d1961166f565b5b6000611d28848285016118ef565b91505092915050565b6000602082019050611d466000830184611849565b92915050565b600060208284031215611d6257611d6161166f565b5b6000611d70848285016116f8565b91505092915050565b7f596f7520646f206e6f74206f776e20746869732070726f647563740000000000600082015250565b6000611daf601b836117bb565b9150611dba82611d79565b602082019050919050565b60006020820190508181036000830152611dde81611da2565b9050919050565b7f4e487b7100000000000000000000000000000000000000000000000000000000600052603260045260246000fd5b7f70726f6475637420697320616c726561647920736f6c64000000000000000000600082015250565b6000611e4a6017836117bb565b9150611e5582611e14565b602082019050919050565b60006020820190508181036000830152611e7981611e3d565b9050919050565b7f5468657265206973206e6f2070726f647563742077697468207468652067697660008201527f656e207365637265744964000000000000000000000000000000000000000000602082015250565b6000611edc602b836117bb565b9150611ee782611e80565b604082019050919050565b60006020820190508181036000830152611f0b81611ecf565b9050919050565b7f596f7520616c7265616479206f776e20746869732070726f6475637400000000600082015250565b6000611f48601c836117bb565b9150611f5382611f12565b602082019050919050565b60006020820190508181036000830152611f7781611f3b565b9050919050565b7f596f75206f776e20302070726f64756374000000000000000000000000000000600082015250565b6000611fb46011836117bb565b9150611fbf82611f7e565b602082019050919050565b60006020820190508181036000830152611fe381611fa7565b9050919050565b7f4e487b7100000000000000000000000000000000000000000000000000000000600052601160045260246000fd5b600061202482611679565b91506000820361203757612036611fea565b5b600182039050919050565b600061204d82611679565b91507fffffffffffffffffffffffffffffffffffffffffffffffffffffffffffffffff820361207f5761207e611fea565b5b600182019050919050565b600060608201905061209f6000830186611849565b6120ac6020830185611cda565b6120b96040830184611cda565b949350505050565b7f4e487b7100000000000000000000000000000000000000000000000000000000600052602260045260246000fd5b6000600282049050600182168061210857607f821691505b60208210810361211b5761211a6120c1565b5b50919050565b7f50726f647563742069642069732075736564206265666f726500000000000000600082015250565b60006121576019836117bb565b915061216282612121565b602082019050919050565b600060208201905081810360008301526121868161214a565b9050919050565b7f5365637265742069642069732075736564206265666f72650000000000000000600082015250565b60006121c36018836117bb565b91506121ce8261218d565b602082019050919050565b600060208201905081810360008301526121f2816121b6565b9050919050565b600061220482611679565b915061220f83611679565b92508282101561222257612221611fea565b5b828203905092915050565b60006040820190506122426000830185611849565b61224f6020830184611cda565b9392505050565b7f596f752068617665206e6f2070726f6475637473000000000000000000000000600082015250565b600061228c6014836117bb565b915061229782612256565b602082019050919050565b600060208201905081810360008301526122bb8161227f565b9050919050565b7f53656c6c65722070726f6475637420636f756e74206973203000000000000000600082015250565b60006122f86019836117bb565b9150612303826122c2565b602082019050919050565b60006020820190508181036000830152612327816122eb565b9050919050565b7f50726f6475637420697320616c726561647920736f6c642c205365637265742060008201527f6964206973207363616e6e6564206265666f7265000000000000000000000000602082015250565b600061238a6034836117bb565b91506123958261232e565b604082019050919050565b600060208201905081810360008301526123b98161237d565b9050919050565b7f4f776e61626c653a2063616c6c6572206973206e6f7420746865206f776e6572600082015250565b60006123f66020836117bb565b9150612401826123c0565b602082019050919050565b60006020820190508181036000830152612425816123e9565b9050919050565b7f4f776e61626c653a206e6577206f776e657220697320746865207a65726f206160008201527f6464726573730000000000000000000000000000000000000000000000000000602082015250565b60006124886026836117bb565b91506124938261242c565b604082019050919050565b600060208201905081810360008301526124b78161247b565b905091905056fea26469706673582212200f395c0b1eda10869e841aac7e8d1e61f8e4dd4dc71fbf3e5a5646da276e667e64736f6c634300080d0033",
  "immutableReferences": {},
  "source": "// SPDX-License-Identifier: MIT\r\npragma solidity ^0.8.13;\r\nimport \"./Ownership.sol\";\r\n\r\ncontract ProductScan is Ownership {\r\n\r\n    //rnler\r\n    Product[] private products;\r\n    //Satclar\r\n    //SellerInfo[] private sellers;\r\n\r\n    //rn\r\n    struct Product {\r\n        uint256 productId;\r\n        uint256 price;\r\n        string name;\r\n        bool isSold;\r\n        string details;\r\n        //Tarihler 1970'ten bu yana gelen saniyeler ile hesaplanr!!!\r\n        uint productionDate;\r\n    }\r\n\r\n\r\n    //Satc\r\n    // struct SellerInfo {\r\n    //     uint256 reportCount;\r\n    //     string name;\r\n    //     string details;\r\n    // }\r\n\r\n\r\n    constructor(){\r\n        products.push(Product(0, 0, \"Dummy Data\", false, \"Dummy Data For initialize\", 10));\r\n \r\n        emit constructorSet(msg.sender);\r\n    }\r\n\r\n\r\n    //Mapping ksm\r\n    //mapping(address => uint256) sellerAddressToSellerIndex;\r\n\r\n    mapping(uint256 => uint256) private productIdToProductIndex;\r\n\r\n    mapping(bytes32 => uint256) private secretIdToProductIndex;\r\n\r\n    mapping(address => uint256) private ownerProductCount;\r\n\r\n    mapping(uint256 => bool) productIdUsedForReport;\r\n\r\n    mapping(uint256 => address) private productToOwner;\r\n    \r\n\r\n\r\n    //Eventler\r\n    event constructorSet(address setter);\r\n\r\n    event newProductAdded(uint256 productId, address owner);\r\n\r\n    event productPurchased(address buyer);\r\n\r\n    event productSoldSuccessfully(\r\n        uint256 productId,\r\n        address seller,\r\n        address buyer\r\n    );\r\n    event productPurchasedByConsumer(uint256 productId, address buyer);\r\n\r\n    event newSellerRegistered(string name, address seller);\r\n\r\n\r\n\r\n    modifier sellerCheck(uint256 _productId) {\r\n        // check if the seller owns the product or not...\r\n        address productOwner = productToOwner[_productId];\r\n        require(msg.sender == productOwner, \"You do not own this product\");\r\n        _;\r\n    }\r\n\r\n    modifier soldCheck(uint256 _productId) {\r\n        // finding product index\r\n        uint256 productIndex = productIdToProductIndex[_productId];\r\n\r\n        // finding product from index\r\n        bool isSold = products[productIndex].isSold;\r\n\r\n        require(isSold == false, \"product is already sold\");\r\n        _;\r\n    }\r\n\r\n    // modifier onlySideContract() {\r\n    //     require(msg.sender == sideContract, \"You are not side contract\");\r\n    //     require(sideContract != address(0), \"side contract is not set yet\");\r\n    //     _;\r\n    // }\r\n\r\n    // function getAllProducts() public view returns (Product[] memory){\r\n    //     require(products.length > 0, \"There are no products\");\r\n\r\n    //     return products;\r\n    // }\r\n\r\n\r\n    function getAllOwnedProducts() public view returns (Product[] memory) {\r\n        uint256 productCount = ownerProductCount[msg.sender];\r\n        //rn var m?\r\n        require(productCount > 0, \"You have no products\");\r\n\r\n        // push method not available for memory array...\r\n        Product[] memory ownedProducts = new Product[](productCount);\r\n        uint256 j = 0;\r\n\r\n        for (uint256 i = 0; i < products.length; i++) {\r\n            if (productToOwner[products[i].productId] == msg.sender) {\r\n                ownedProducts[j] = products[i];\r\n                j++;\r\n            }\r\n        }\r\n        return ownedProducts;\r\n    }\r\n\r\n\r\n    function addProduct(\r\n        uint256 _productId,\r\n        bytes32 _secretId,\r\n        uint256 _price,\r\n        string memory _name,\r\n        string memory _details,\r\n        uint _productionDate\r\n    ) external returns (bool) {\r\n        //Product ID daha nce kullanld m?\r\n        require(\r\n            productIdToProductIndex[_productId] == 0,\r\n            \"Product id is used before\"\r\n        );\r\n        require(\r\n            secretIdToProductIndex[_secretId] == 0,\r\n            \"Secret id is used before\"\r\n        );\r\n        //Fonksiyonu aran kii sahip olur\r\n        productToOwner[_productId] = msg.sender;\r\n        ownerProductCount[msg.sender]++;\r\n\r\n        //Diziye rn ekleme:\r\n        // uint256 productId;\r\n        // uint256 price;\r\n        // string name;\r\n        // bool isSold;\r\n        // string details;\r\n        // //Tarihler 1970'ten bu yana gelen saniyeler ile hesaplanr!!!\r\n        // uint productionDate;\r\n        products.push(Product(_productId, _price, _name, false, _details, _productionDate));\r\n\r\n        //setting index in mappings\r\n        productIdToProductIndex[_productId] = products.length - 1;\r\n        secretIdToProductIndex[_secretId] = products.length - 1;\r\n\r\n        emit newProductAdded(_productId, msg.sender);\r\n\r\n        return true;\r\n    }\r\n\r\n\r\n    function buyProduct(bytes32 _secretId)\r\n        external\r\n        returns (bool)\r\n    {\r\n        //onlySideContract\r\n        // finding product index using secret id from the in the common storage...\r\n        uint256 productIndex = secretIdToProductIndex[_secretId];\r\n        // productId from product\r\n        uint256 productId = products[productIndex].productId;\r\n        // product current owner from productId\r\n        address productOwner = productToOwner[productId];\r\n\r\n\r\n        //Byle bir rn var m yok mu?\r\n        require(\r\n            productOwner != address(0x0),\r\n            \"There is no product with the given secretId\"\r\n        );\r\n\r\n        //Satta bir rn var m yok mu?\r\n        require(\r\n            ownerProductCount[productOwner] > 0,\r\n            \"Seller product count is 0\"\r\n        );\r\n\r\n        //rn satn alnd m?\r\n        require(\r\n            products[productIndex].isSold == false,\r\n            \"Product is already sold, Secret id is scanned before\"\r\n        );\r\n\r\n        // rn satn alnd olarak iaretlenir.\r\n        products[productIndex].isSold = true;\r\n        productToOwner[productId] = msg.sender;\r\n        // rn satcsnn rn says azaltlr\r\n        ownerProductCount[productOwner]--;\r\n        ownerProductCount[msg.sender]++;\r\n\r\n        emit productPurchasedByConsumer(productId, msg.sender);\r\n\r\n        return true;\r\n    }\r\n\r\n\r\n    // should be called for reselling\r\n    function sellProduct(uint256 _productId, address _buyerAddress)\r\n        external\r\n        sellerCheck(_productId)\r\n        soldCheck(_productId)\r\n        returns (bool)\r\n    {\r\n\r\n        address productOwner = productToOwner[_productId];\r\n\r\n        //Byle bir rn var m yok mu?\r\n        require(\r\n            productOwner != address(0x0),\r\n            \"There is no product with the given secretId\"\r\n        );\r\n        //Kullanc kendine rn satamaz\r\n        require(msg.sender != _buyerAddress, \"You already own this product\");\r\n        require(ownerProductCount[msg.sender] > 0, \"You own 0 product\");\r\n\r\n        uint256 productIndex = productIdToProductIndex[_productId];\r\n\r\n\r\n        //rnn yeni sahibi tanmlanr ve satld olarak iaretlenir\r\n        products[productIndex].isSold = true;\r\n        productToOwner[_productId] = _buyerAddress;\r\n        \r\n\r\n        // changing limit\r\n        ownerProductCount[msg.sender]--;\r\n        ownerProductCount[_buyerAddress]++;\r\n\r\n        emit productSoldSuccessfully(_productId, msg.sender, _buyerAddress);\r\n\r\n        return true;\r\n    }\r\n    \r\n\r\n\r\n    function productDetails(uint256 _productId)\r\n        external\r\n        view\r\n        returns (\r\n            string memory name,\r\n            string memory details,\r\n            uint256 price,\r\n            bool isSold,\r\n            string memory isOriginal,\r\n            uint productionDate\r\n        )\r\n    {\r\n        uint256 index = productIdToProductIndex[_productId];\r\n        Product memory tP = products[index];\r\n        address ownerAddress = productToOwner[_productId];\r\n\r\n        if(ownerAddress != address(0x0)){\r\n            return (tP.name, tP.details, tP.price, tP.isSold, \"Original\", tP.productionDate);\r\n        }\r\n        else{\r\n            return (\"NA\", \"NA\", 0, false, \"Fake\", 0);\r\n        }\r\n        \r\n    }\r\n\r\n\r\n    function productLength()\r\n        public\r\n        view\r\n        onlyOwner\r\n        returns (uint256 _productArrayLength)\r\n    {\r\n        return products.length;\r\n    }\r\n\r\n}",
  "sourcePath": "C:\\Users\\alioz\\Documents\\ProductScan\\contracts\\ProductScan.sol",
  "compiler": {
    "name": "solc",
    "version": "0.8.13+commit.abaa5c0e.Emscripten.clang"
  },
  "schemaVersion": "3.4.6",
  "updatedAt": "2023-01-08T16:16:45.327Z",
  "devdoc": {
    "kind": "dev",
    "methods": {
      "owner()": {
        "details": "Returns the address of the current owner."
      },
      "transferOwnership(address)": {
        "details": "Transfers ownership of the contract to a new account (`newOwner`). Can only be called by the current owner."
      }
    },
    "version": 1
  },
  "userdoc": {
    "kind": "user",
    "methods": {},
    "version": 1
  }
}